:020000040000fa
:080000000001040000000000f3
:020000040000fa
:0400080034020000be
:020000040000fa
:04000c007602000078
:020000040000fa
:04001000b602000034
:020000040000fa
:040014005402000092
:020000040000fa
:04001800960200004c
:020000040000fa
:04001c0022030000bb
:020000040000fa
:0400200022030000b7
:020000040000fa
:0400240022030000b3
:020000040000fa
:0400280022030000af
:020000040000fa
:04002c0022030000ab
:020000040000fa
:0400300022030000a7
:020000040000fa
:04003400d6020000f0
:020000040000fa
:04003800220300009f
:020000040000fa
:04003c00220300009b
:020000040000fa
:040040002203000097
:020000040000fa
:040044002203000093
:020000040000fa
:04004800220300008f
:020000040000fa
:04004c00220300008b
:020000040000fa
:040050002203000087
:020000040000fa
:040054002203000083
:020000040000fa
:04005800220300007f
:020000040000fa
:04005c00220300007b
:020000040000fa
:040060002203000077
:020000040000fa
:040064002203000073
:020000040000fa
:04006800220300006f
:020000040000fa
:04006c00220300006b
:020000040000fa
:040070002203000067
:020000040000fa
:040074002203000063
:020000040000fa
:04007800220300005f
:020000040000fa
:04007c00220300005b
:020000040000fa
:040080002203000057
:020000040000fa
:040084002203000053
:020000040000fa
:04008800220300004f
:020000040000fa
:04008c00220300004b
:020000040000fa
:040090002203000047
:020000040000fa
:040094002203000043
:020000040000fa
:04009800220300003f
:020000040000fa
:04009c00220300003b
:020000040000fa
:0400a0002203000037
:020000040000fa
:0400a4002203000033
:020000040000fa
:0400a800220300002f
:020000040000fa
:0400ac00220300002b
:020000040000fa
:0400b0002203000027
:020000040000fa
:0400b4002203000023
:020000040000fa
:0400b800220300001f
:020000040000fa
:0400bc00220300001b
:020000040000fa
:0400c0002203000017
:020000040000fa
:0400c4002203000013
:020000040000fa
:0400c800220300000f
:020000040000fa
:0400cc00220300000b
:020000040000fa
:0400d0002203000007
:020000040000fa
:0400d4002203000003
:020000040000fa
:0400d80022030000ff
:020000040000fa
:0400dc0022030000fb
:020000040000fa
:0400e00022030000f7
:020000040000fa
:0400e40022030000f3
:020000040000fa
:0400e80022030000ef
:020000040000fa
:0400ec0022030000eb
:020000040000fa
:0400f00022030000e7
:020000040000fa
:0400f40022030000e3
:020000040000fa
:0400f80022030000df
:020000040000fa
:0400fc0022030000db
:020000040000fa
:0401000022030000d6
:020000040000fa
:0401040022030000d2
:020000040000fa
:0401080022030000ce
:020000040000fa
:04010c0022030000ca
:020000040000fa
:0401100022030000c6
:020000040000fa
:0401140022030000c2
:020000040000fa
:0401180022030000be
:020000040000fa
:04011c0022030000ba
:020000040000fa
:0401200022030000b6
:020000040000fa
:0401240022030000b2
:020000040000fa
:0401280022030000ae
:020000040000fa
:04012c0022030000aa
:020000040000fa
:0401300022030000a6
:020000040000fa
:0401340022030000a2
:020000040000fa
:04013800220300009e
:020000040000fa
:04013c00220300009a
:020000040000fa
:040140002203000096
:020000040000fa
:040144002203000092
:020000040000fa
:04014800220300008e
:020000040000fa
:04014c00220300008a
:020000040000fa
:040150002203000086
:020000040000fa
:040154002203000082
:020000040000fa
:04015800220300007e
:020000040000fa
:04015c00220300007a
:020000040000fa
:040160002203000076
:020000040000fa
:040164002203000072
:020000040000fa
:04016800220300006e
:020000040000fa
:04016c00220300006a
:020000040000fa
:040170002203000066
:020000040000fa
:040174002203000062
:020000040000fa
:04017800220300005e
:020000040000fa
:04017c00220300005a
:020000040000fa
:040180002203000056
:020000040000fa
:040184002203000052
:020000040000fa
:04018800220300004e
:020000040000fa
:04018c00220300004a
:020000040000fa
:040190002203000046
:020000040000fa
:040194002203000042
:020000040000fa
:04019800220300003e
:020000040000fa
:04019c00220300003a
:020000040000fa
:0401a0002203000036
:020000040000fa
:0401a4002203000032
:020000040000fa
:0401a800220300002e
:020000040000fa
:0401ac00220300002a
:020000040000fa
:0401b0002203000026
:020000040000fa
:0401b4002203000022
:020000040000fa
:0401b800220300001e
:020000040000fa
:0401bc00220300001a
:020000040000fa
:0401c0002203000016
:020000040000fa
:0401c4002203000012
:020000040000fa
:0401c800220300000e
:020000040000fa
:0401cc00220300000a
:020000040000fa
:0401d0002203000006
:020000040000fa
:0401d4002203000002
:020000040000fa
:0401d80022030000fe
:020000040000fa
:0401dc0022030000fa
:020000040000fa
:0401e00022030000f6
:020000040000fa
:0401e40022030000f2
:020000040000fa
:0401e80022030000ee
:020000040000fa
:0401ec0022030000ea
:020000040000fa
:0401f00022030000e6
:020000040000fa
:0401f40022030000e2
:020000040000fa
:0401f80022030000de
:020000040000fa
:0401fc0022030000da
:020000040000fa
:100200006fab20000e7f24000e018800000000006c
:10021000000020000000e000020032000001200089
:100220002002880014000700530107000000e000ce
:1002300003003a0040332300010020000200370091
:100240000000200001002000810f7000010032003a
:1002500014000700000020000000e000020032004f
:1002600000000200000000003e2802000000000024
:100270000040da000000fe004440a900803a20005f
:100280000000e00003003200002020009001880000
:100290004440a800000006008a1f78008b1f7800e9
:1002a00000000600a1028800800478000000eb0036
:1002b0001f003700e284440054a0b4009905ba003e
:1002c000e284440054a0b4009906ba00e2844400d9
:1002d00054a0b4000006eb00476fde00fd07b2003b
:1002e000ae018800636ce10003003a00eaff0700fa
:1002f0000000eb000e003700606ce10008003a00df
:10030000004deb000a05e800020039003420ec0043
:100310000af0a0008b05e900f9ff3e000400370059
:100320006168e100010032000086eb000b0007006d
:1003300019c7ba001905ba000e04e00003003a001c
:100340000a00e000dbff3a0000000600fe07b200f2
:10035000ae0288008a047800f5ff37000cd0a300b5
:10036000e20f4d001c00390089027800354dba00bb
:100370000a05e800020039003420ec000af0a00071
:100380008b05e9000f003200254dba000a05e80090
:10039000020039003420ec000af0a0008b05e900cf
:1003a000080032000c00e0000600320015cdba0053
:1003b0000a05e800020039003420ec000af0a00031
:1003c0008b05e9008984e80054a0b4000b00e0002c
:1003d000e2ff3a00000006009902ba00055d7800cd
:1003e0008b05e900f7ff3200c82ade00055d7800c2
:1003f0008b05e900f3ff32000c00e000f1ff320052
:1004000019ddba00eeff3700e82e040000000000fe
:10041000f4260400000000000e2704000000000085
:100420002c270400000000004a2704000000000000
:100430006c270400000000008e270400000000006c
:10044000b027040000000000de26040000000000c9
:100450001614040000000000c80e04000000000094
:10046000560a0400000000003600f800809fbe001d
:10047000829fbe00849fbe00869fbe000000fa00df
:100480008020a9000000eb005e1907000080fa0040
:100490004f03be004f02be004f01be004f00be0022
:1004a0003600f900004006003600f800809fbe00cc
:1004b000829fbe00849fbe00869fbe000000fa009f
:1004c000551907008040a900100020004d190700b1
:1004d0000080fa004f03be004f02be004f01be0075
:1004e0004f00be003600f900004006003600f8005c
:1004f000809fbe00829fbe00849fbe00869fbe007c
:100500000000fa008060a900200020003d190700cb
:100510000080fa004f03be004f02be004f01be0034
:100520004f00be003600f900004006003600f8001b
:10053000809fbe00829fbe00849fbe00869fbe003b
:100540000000fa008080a900300020002d1907006b
:100550000080fa004f03be004f02be004f01be00f4
:100560004f00be003600f900004006003600f800db
:10057000809fbe00829fbe00849fbe00869fbe00fb
:100580000000fa008600a900700020001d19070075
:100590000080fa004f03be004f02be004f01be00b4
:1005a0004f00be003600f900004006003600f8009b
:1005b000809fbe00829fbe00849fbe00869fbe00bb
:1005c0003200f8003400f80010002000a00188007c
:1005d00000202000900188000000fa00c0aa20003e
:1005e000b513070004c8bf000004a2000080fb0090
:1005f0000040780004e8b70001c8bf000004a20072
:100600000004e0000400320005c8bf000040e8001c
:1006100005e8b700010037000568ef008860a90011
:100620000080fa003400f9003200f9004f03be00e8
:100630004f02be004f01be004f00be003600f90061
:10064000004006000040da000000fe000a00fa0048
:1006500011002000b1bf9f00c0bf9f006a805700fb
:10066000b80907004fb897000080fa0000000600a4
:100670000a00fa00e20f500034003e00a05580004e
:10068000e10f500003003200e20f500011003a0069
:100690000c003700833920000300e00001003a001d
:1006a0000040da009803e20002003500a023ef00ca
:1006b00099e3a8009b43ab000d003a009b43a800c0
:1006c0000b003700e33a20000300e00001003a008d
:1006d0000040da00ae03e20002003500b623ef006e
:1006e000afe3a800b143ab0001003a00b143a8005a
:1006f000820178000b0037003102fb00e10f50004f
:1007000004003a009b23ab00feff3a00e41c880083
:1007100003003700b123ab00feff3a00941d8800b0
:100720008301e9000300e000f3ff3a00e10f50000d
:1007300003003a009b03ab00feff32000b003700c2
:10074000b103ab00feff3200080037003300200089
:10075000b3bf9f00c0bf9f00d1bf9f00e2bf9f00fb
:100760006a805700790907006fb997000200780086
:100770000080fa000000060000000500f4ff2f00d2
:10078000f30137004f89de00820178000b02370049
:1007900007f82700078361000638e10004003a00eb
:1007a000f7072000878361008703710001003a008a
:1007b00003f0a200889fbe008a9fbe008c9fbe00ef
:1007c000470ade000480a100c71ade000580a100f0
:1007d000070028000785600087856100f70f20006b
:1007e0000720e1009e0032000728e1009c00320053
:1007f000010678000400e000b4003200f707200092
:10080000878060000170a0000500e000c000320099
:10081000f7072000878161000370a00005065200e1
:100820000f003a000b50e1000b0032000308e1001a
:1008300002003a000200e1007e0032000204500093
:1008400083845800040031000001fd008101fd0097
:100850008402fd008a05fd006044b80021003700d5
:100860000520e10005003d000001fd008101fd00c3
:100870008402fd008a05fd00050652007a60e10051
:10088000050035000170a1004722dd008480700062
:100890008a807000630037006044b800ef02660091
:1008a00007ff2f00070666000500e0000600340081
:1008b000f08312008714dd000511de00071bdd0048
:1008c000060171008519de007060e1000500350049
:1008d0000904780082047800030178008001eb00ad
:1008e000700656000b50e10003003a000200400081
:1008f000838048000400370060041400e0841c007a
:1009000002005800838058000188a30006003200ce
:100910008100d1000080d3008984d3000884d300f3
:100920000402e800270037000178a30025003a0000
:100930000100e000030032008186cf006986560086
:100940000a0037008c0020000000e00004003a009c
:1009500009007800880478000004eb00700252005f
:100960008086cf000d0646000c06e9007060e100ad
:1009700006003500800078000900780088047800bf
:100980000004eb0070065600700252000c00e000fc
:100990000c0034008c08dd00f00316000703de00b5
:1009a000868070000c00dd00074bde000600700042
:1009b0008c4cdd000743de00868474000c44dd00af
:1009c0000c0252006120e10020003500610160004e
:1009d0000700280087816400f7ff270087836400f1
:1009e000070374000300e000060032008203730076
:1009f000040032000000e800e08048000188a30005
:100a00000e003a00f70f20000720e1004a003d00e9
:100a10000170a1004722dd00810072008a80700011
:100a20000000be004f06be004f05be004f04be00d2
:100a3000000006006000b800faff37008100d10016
:100a40000080d3000402e800eeff370004017800c4
:100a500089017400c20007008a807000f1ff37002e
:100a600018010700070278000001fd008101fd0068
:100a70001401070087027800850372000778a3003d
:100a8000040032000001fd008101fd002701070084
:100a9000e4ff3700850362000768a3000800320006
:100aa0000b50e10003003200f0ff2f00f1ff2700a0
:100ab000dcff37000001fd008101fd00d9ff370098
:100ac0000468a300d7ff3200faff3700f8ff2700c1
:100ad000888360000b003a000000e00009003a0043
:100ae0008303640082837300020032000200be00b0
:100af000ccff37000b50e100ceff3a000200be00f1
:100b0000c8ff370014002000810064003eff37005a
:100b1000f8ff27008883610004003a000200e0002b
:100b200002003a008c007800beff3700150020005c
:100b30008301640039ff370001f82700000020001e
:100b400081007500b7ff37000383680007002800a5
:100b500007036300470ade000480a100c71ade0015
:100b60000580a100f70f20000720e10042003200bd
:100b70000728e10040003200889fbe008a9fbe0027
:100b80008c1f7800f107b200f307b2000400e00008
:100b9000640032000170a0000500e000680032002f
:100ba0000370a00085054200eb07b1000204b80005
:100bb0000302b8008484440060854a00020ab80039
:100bc000848444000a854a00030ab80004054500ed
:100bd000040033000804d0008984d2000a85d200c2
:100be0008b05e9006158e1003d003500021020004e
:100bf000090161000308200089816100f7072000d6
:100c00008783640008867300c84cde00c853dd008b
:100c1000878474004855de000300e00006003200bf
:100c200082037600040032008904e80060054d006c
:100c30000a88a3000c003a00f70f20000758e100d3
:100c400044003d000a70a100c75ddd000a85750003
:100c50008a007300090078004f0678004f05be0037
:100c60004f04be00000006000a05d1008984d300ad
:100c70008b05e800f0ff3700881f78000604780035
:100c800090000700070278000001fd008101fd00cf
:100c90008c00070087027800850372000778a300a4
:100ca000050032000001fd008101fd009f000700ea
:100cb0004f04780000000600850372000748a30077
:100cc00003003200f0ff2f00f1ff2700f8ff37008c
:100cd0000000200001f8270088807000f4ff370032
:100ce000880178004848dd00808171004848de00b6
:100cf000c850dd0001007000c850de000604780016
:100d00000b0178001600070088807000d2ff3700c2
:100d10000500e00005003200170020003a0007003f
:100d20009dff370081037000f9ff3a0086007800cc
:100d30004f0678004f05be004f04be0000000500be
:100d400083037100f9ff3200270020002e00070006
:100d500094ff370001f8270086807000f4ff370009
:100d60000100e00026003200610111007810e1006e
:100d700023003c006022b8007010e1000400350040
:100d800080027800010078008000eb0070015100c3
:100d90000200e0000900340070031100062add00a3
:100da000822ade008603dd00878272000200de00f8
:100db000860bdd00070070008208de008481710070
:100dc000f4ff27000482620084817100040028007f
:100dd000848262006102600005f0a6000000060047
:100de00004827100070032000000e800e080480043
:100df000000006000002be006000b800efff3700f0
:100e00006000b80000000600889fbe000004eb00f0
:100e10006138e10016003a000100e00008003a00e5
:100e2000c800de004800dd00880020000100e0006e
:100e300003003a00c800de004800dd0068044400fa
:100e40008184cf00e9845400060034008908dd0065
:100e5000f08314008703de00878070000900dd0046
:100e600009044400610214004f04be0000000600a3
:100e70000300e00008003a00c811de004811dd0060
:100e8000880020000300e00003003a00c811de00e3
:100e90004811dd00680444008384cf00e9845400d5
:100ea000060034008919dd00f08314008713de008a
:100eb000878171000911dd0009044400e10214007a
:100ec000e9ff37002700200001f0a70017002000ed
:100ed000470bde00f60fb200040032000643e800c4
:100ee0000a0032004702b300000006000103780048
:100ef000f607b2000603700002003a000703b300d1
:100f0000000006008702b30000000600010378001d
:100f1000f607b20006037000020032000770a0005e
:100f2000000006000760a000000006000478a3008f
:100f3000040032000578a300030032000168a3001a
:100f400001003a000200be000160a000000006009f
:100f5000889fbe008a9fbe00841f78007c00070027
:100f60004f00780011003300f0ff2f00838f6c00da
:100f700006003b00040565000a00a70008003700d2
:100f800009f0a6001000200008003700820f54006e
:100f9000838f5c00030039001000200001003e0038
:100fa0000000200009f0a7000000ea004f05be0085
:100fb0004f04be000000e00000000600881f78001b
:100fc000030478000300e00007003d00600010000b
:100fd000e080180060011900e081190002003b0068
:100fe00001f02d00030037000400070008f0a700ff
:100ff00001f0a0004f04780000000600889fbe00aa
:101000008a9fbe0000827000040271000482710099
:10101000260032000004be000200be006011b800cd
:101020006b092000950220000182cf000a003900e0
:101030000541b1000082cf00070039000541b10031
:101040000982cf00040039000541b1000882cf00b9
:10105000010039000541b100054252001200320082
:101060000a003b0082817100610164008100d100af
:101070000080d3008984d3000884d3008b05e80066
:101080000442e800f7ff3a00070037000804440074
:1010900089844c0000004800818048008b05e900ed
:1010a0000442e900f9ff3a00030007004f05be00c3
:1010b0004f04be0000000600810020006180550042
:1010c0000b003d000b00200061fe2f000100e1003d
:1010d0001d00340082817100610164008904d10027
:1010e0000884d3000000e800faff3a0071002000f5
:1010f000610064000300700002006000090032001b
:1011000061044400e0844c000988a5000500320019
:101110008b05e8006808e10002003a008904d1006c
:101120000884d300f20f20000258e10005003d00c2
:10113000c75ddd00f907b2008980750008007800fe
:10114000000006000bf827008b0078000000050067
:101150000004be00060007000003be000405be0038
:101160000200be0002000700844f75000000060068
:10117000c70ade00f107b200f50fb2000800320026
:10118000e1cf4200020032000170a00024000500ff
:10119000810f7000010032000408050044000500c2
:1011a000810f700002003a00140005008502e9007a
:1011b0000000400081c04800fcff3b000170a0001f
:1011c00024000500889fbe008a9fbe008c9fbe0041
:1011d0000004be000400200005f82700858360009d
:1011e00004037800840f5300858f5b0007003a00ea
:1011f0000801be000800be0053fe07000001be004b
:101200000800be006bfd070010003700e00f500023
:10121000e08f58000f003c008101780003f0a1002e
:1012200000017800e00f5100e08f59006a003200a1
:1012300010022000905588000801be000800be0082
:1012400053fd07000001be00e70607000004be00d2
:1012500061003700478cde00cf8cde00e00f5400c9
:10126000e08f5c000f003a006044b80004003700d3
:10127000000040008180480061044400e0844c008c
:10128000040020000508200081816200040178002c
:10129000e00f5100e08f5900f5ff320061041400a7
:1012a000e0841c00f807b1000980b10081017800da
:1012b000f307b200000178000200be000170a00038
:1012c0000808a300020032000000400081804800ae
:1012d0008984d1000884d300000040008180480048
:1012e0009401200002002000031020006055b80087
:1012f0006066b8000c0341008d834900800f5300e5
:10130000818f5b0006003c0006064100878649008d
:1013100006005000878058000a0541008b8549006f
:1013200000004000818048008301d1000281d30089
:101330000402e900efff3a00e00f5000e08f580090
:101340001b0032000226240023da200000002000c7
:1013500001f823000efd07000200200003f823001f
:1013600006fd07000000e000110035000226240001
:1013700023da20000000200001f823000dfd070003
:101380000200200003f82300fcfc07000000e0003e
:101390000300340062054500e0854d00040037007d
:1013a0006000b800610065000005450081854d00c2
:1013b000c744dd00080020000000200001f02300e9
:1013c00008044000898448008b85d1000a85d30039
:1013d0000804450089844d000800be004f06be0089
:1013e0004f05be004f04be00000006000000fa00da
:1013f00068815700cfb89700b05080001000780087
:101400003e0207000080fa000000060062000700ac
:10141000ba0007006b01070093010700ec0007000a
:10142000b9020700640237000000fa006881570023
:10143000cfb897003f0207000080fa0000000600c6
:1014400055000700ad000700e10007005d0107003f
:1014500085010700ac020700570237000000fa00c0
:1014600068815700cfb89700320207000080fa0069
:101470000000060048000700a00007005101070017
:1014800079010700d20007009f0207004a023700d7
:101490008001780002003700b15978000201e900ac
:1014a0000200e000fcff3a00000006000000060019
:1014b000c0a1200000000600fdff0700d0508800fa
:1014c000c050880000000600889fbe000004be00d7
:1014d0000800780018000700000044008900780028
:1014e0000e000700080078004f04be000000060050
:1014f000810178000002780030417800b14f51003e
:1015000002003a000204e000f9ff3a009480fb0078
:101510001380fb000080500000000600881f780048
:1015200000047800080078008605070008007800ad
:101530004f047800000006008000780004003700a7
:101540003104e00002003a000000510000000600f3
:10155000010178000108a300f9ff3a008101780039
:1015600031017800f4ef2f00020242000281ea000c
:10157000020162000408280004016100f7ff320044
:1015800083007800010178003104e000fdff3a009b
:101590000000510000000600ec874700889fbe0055
:1015a0008a9fbe008c9fbe008e1f780000067800c8
:1015b000010478001807900028059000980678002c
:1015c000cdb79f00b80590003202be002203be00d6
:1015d0000400be000601be004f18de006011b80016
:1015e0008000eb00d0b79f00e1b79f00f2b79f00eb
:1015f00083bf9f00800478000900e00006003200ed
:101600006000b8006011b8000402500085825800e4
:1016100006035900878359000e00e00002003500e0
:101620000d10a100cdb79f000900e00005003a00b1
:101630004fb097000028a30002003a000038a30032
:10164000020032008a00e900010037008a007800b9
:10165000f8815700a20020000800780086000700eb
:101660000900e00003003a00cfb097000128a30072
:10167000080032000000e90000814500b1c2b3005b
:101680000900e00001003200d1c2b3000149780036
:10169000050037000138a300030032000000e90014
:1016a00001c2b30081757800480190000201e90091
:1016b00000015100808045004fb297008a017800f8
:1016c0000c0078005b0207009c0090000188a300da
:1016d0000400320098009000810f500001003d008e
:1016e000010078004f0778004f06be004f05be008e
:1016f0004f04be00cf00b100000006000200fa0057
:10170000889fbe008a9fbe00800578000104780093
:1017100002007800180190002805900098007800d9
:10172000b1bf9f00b80490000200e0000200350045
:101730000110a100b1bf9f00ea8157008200200084
:101740008a0078003002be002003be000800780046
:10175000490007003fb99700f00061000300320024
:101760000000e90001c3b300817478003fb997001d
:10177000e8006100030032000000e90001c2b3008c
:1017800081747800480190000201e90000015100d5
:10179000808044003fba97008a0178000b007800ef
:1017a000240207009b0090000188a300040032007f
:1017b00098009000810f500001003d00010078006a
:1017c0004f05be004f04be000080fa000000060076
:1017d000ea874700889fbe008a9fbe008e1f780060
:1017e00000047800030078007287570084e2260026
:1017f00055c72600049fbe00c3962200030f780041
:101800006c875700004feb0011059000a104900079
:10181000910578000200e000020032000207780023
:1018200001003700728757000000e00002003a0014
:101830000e00780040ff07000a00e00003003500ba
:101840008a0f5000010036000a0078000b02780071
:1018500089017800000178008e0078000800780087
:10186000f40107004f0778004f05be004f04be008b
:10187000af00b10000000600f4874700889fbe005b
:101880008a9fbe008c9fbe008e1f78000605be009a
:101890000404be0081bf9f0082b79f00f3b79f0082
:1018a000b0009000e1b79f001301780092b79f004d
:1018b00090069000400090000000e90000067800cb
:1018c0000d00e00001003d001d0020008040eb0005
:1018d000efb19700817178001e0020001f003700d3
:1018e0000c06e9000fb09700cf80de006109b90057
:1018f000a0b79f00b1b79f00c2b79f00d3b79f00aa
:101900000203be000002be000800be000a01be00c5
:101910003a070700000778000e4078000043b00047
:10192000efb0970080707e008d06e9000fb9970038
:101930000201e90082bf9f002fb29700bfb297005b
:101940004fb39700dfb397000800be000a01be0046
:10195000230707000205be000004be000c00e000e3
:101960000d003400e00f5400e08f5c00e00f5d00dc
:10197000e08f5d00daff3a000d00e000d8ff3c0088
:101980008fb997000300e000030034001fb09700f8
:101990000018a300d2ff3a000e00e00002003a0057
:1019a000ffb097001140a1000c0078004f077800ad
:1019b0004f06be004f05be004f04be004f01b100f0
:1019c000000006000200fa00889fbe008a9fbe0049
:1019d00000057800010478000200780018019000ea
:1019e000a804900098007800b1bf9f00b80590004f
:1019f0000200e000020035000110a100b1bf9f000d
:101a0000ea815700a2002000890078003002be0061
:101a10002003be000800780097ff070048019000ef
:101a20000201e90000015100808045003fba9700a3
:101a3000890178000a0078007e0107009a00900072
:101a40000188a3000400320098009000810f50002c
:101a500001003d00010078004f05be004f04be00ac
:101a60000080fa0000000600fa874700889fbe0049
:101a70008a9fbe008c9fbe008e1f78008004780075
:101a80000104780082057800180190002805900074
:101a900018077800b80090000200e000020035004e
:101aa0000e10a10001003700120020007000670036
:101ab000e0b79f00090032003b02be002b03be00ce
:101ac000e00f5200e08f5a00e00f5b00e08f5b00f8
:101ad000020032008a86e900010037008a06780099
:101ae000e8026700f5b79f00010032008d06e900ab
:101af0003b02be002b03be00e4af9f00f5af9f008a
:101b000086b79f0097b79f00480690000c06e90033
:101b10000040eb0080707e00efb297007fb297002c
:101b20008903780081047800d8af9f000204780010
:101b30008bbf9f008a057800034578002a00370094
:101b40000c06e9006fab97006f006300e90f5000cf
:101b500002003c000003b000010037007005b00037
:101b60000a03fb001604b100f90f53000c003e00fd
:101b7000000378000650a0001606b100f90f5300cc
:101b800007003e00b4b79f00a5b79f00c7b79f00ee
:101b90001d040700cfb39700afb297003fb2970084
:101ba00080747e000804e9008d06e9006fa89700a4
:101bb000ffa897000fb197009fb197004600200043
:101bc0008301d1000281d3008180d3000080d30043
:101bd0000603e900faff3a00e0af9f00f1af9f0073
:101be00082b79f0093b79f00e10f56000f003400ab
:101bf0006fa89700ffa897000fb197009fb19700bb
:101c0000e00f5000e08f5800e00f5900e08f5900be
:101c1000cbff3a000800e000c9ff3c000d00e000e7
:101c2000020034000e18a300c5ff3a0089007800b6
:101c3000f4b79f00870478005fac97008a41780072
:101c40000b0578008fbd97000500e0001000320002
:101c50003b02be002b03be00e4af9f00f5af9f0028
:101c600086b79f0097b79f00e00f5200e08f5a00a1
:101c7000e00f5b00e08f5b00050032000c06e9001e
:101c800083707e000c06e90000c3b30080707e0004
:101c9000ffb297000500e000030032000c06e900e7
:101ca00000c2b30080707e00480190000201e9008c
:101cb0000c0151008c8040000e0278008a017800ef
:101cc00009007800db000700990090000188a3005c
:101cd0000400320098009000810f500001003d0088
:101ce000010078004f0778004f06be004f05be0088
:101cf0004f04be00af01b100000006000200fa0070
:101d0000881f780000047800e2bf9f0064815700bc
:101d10000800780086020700980090000148a300a0
:101d2000010032000080eb004f0478000080fa00d0
:101d3000000006008201780001017800f1ff270011
:101d4000bc033700889fbe00000478004800900064
:101d500082047800808f54000100360080047800ef
:101d60000901780058009000c9fd07005800900054
:101d70000900400050049800c80090008984500079
:101d8000490498000048eb004f04be000000060024
:101d90001000780036fa3700900190000388a30005
:101da00001003200e7ff37000348a30001003a00ba
:101db000f7ff07000000060084082000848f500011
:101dc0001d0032000d003c0014082000848f5000dc
:101dd0002700320002003c00040820000400370005
:101de00024082000848f5000340032004408200072
:101df000848f500043003a0036003700040a200068
:101e0000848f50002700320004003c0004092000a9
:101e1000848f50003b003a0028003700020c20005d
:101e2000828f50002f003200020f2000828f50005e
:101e300034003a002b0037009380e9000200e000f4
:101e400005003200810978001102fb00cfa2de00fc
:101e5000612bb90028003700810978001142780011
:101e60000482fb008002eb006033b80022003700e0
:101e700013027800e40052000200e0000500320086
:101e8000810978001102be004fabde0086037800a6
:101e900019003700810978001102be006033b800d4
:101ea000150037009380e90081097800110278005d
:101eb000cfa2de00612bb9000f003700930278003b
:101ec000e8805200810978003102be002103be0083
:101ed000090037009380e9000200e00002003200b0
:101ee000f1ff37009380e900810978001102780042
:101ef0008002eb006033b8000498be000690be007c
:101f0000100005000000050044082000848f5000e8
:101f10002500320008003c0014082000848f500087
:101f20001400320024082000848f50002400320066
:101f3000040820000c00370004092000848f5000a2
:101f40001f00320004003c0084082000848f5000f1
:101f500024003a000e003700040a2000848f50004d
:101f600011003200040c2000848f50001d003a0044
:101f70000d0037009380e900810978009100780016
:101f800001087800cf91de008288be00140037007f
:101f90009380e900810978009100780001087800b9
:101fa000824878000e0037009380e90081097800ac
:101fb0009100780001087800820878000800370056
:101fc0009380e90081097800910078000108780089
:101fd0006112b900612bb9008498be008690be00e2
:101fe0001000050000000500889fbe000004780076
:101ff0004800900082047800808f54000100360071
:1020000080047800090178005800900020fd070046
:10201000580090000900400050049800c80090004b
:1020200089845000490498000048eb004f04be002a
:1020300000000600f2874700889fbe008a9fbe000e
:102040008c9fbe008e1f7800800478000105780008
:1020500002047800830578006107620002003a00fc
:102060008b0f540008003900080178008a007800be
:102070000900780048ff07008b0f54000200390068
:10208000880578001e003700088655000c0178008e
:10209000f00f56000100360002012000010220006e
:1020a0007e805700430207008c0678000500370049
:1020b00002012000fe8057000900780036ff07006b
:1020c000f0865600ef8f5600f9ff3e004461de00b7
:1020d00000ff2f000091b90002014600fe8057006a
:1020e000090078002cff07000e00e00004003a0011
:1020f000080178008a0078000900780026ff0700b0
:102100000b0078004f0778004f06be004f05be0059
:102110004f04be002f01b1000000060000000500c2
:102120000000050000000500000178000040eb0001
:102130008080fb008180400003a8200063c27800fb
:102140000404e00003003a0010a8200060c07800fa
:102150000000060092017800934f520004003a00fc
:1021600010a8200060c078000309e80001003700d3
:102170000040e800ea4f5000edff36000000060086
:10218000f6874700889fbe008a9fbe008c9fbe00d6
:102190008e1f780000057800010478008305780020
:1021a000040678000000eb00c0b79f008080eb00c1
:1021b000d1b79f00e0b79f00f2b79f000008200052
:1021c00080bf9f0098007800010078008004eb0039
:1021d000010037008904e800304178000204e00083
:1021e0000300320053c2b300834f5100f9ff3a009d
:1021f0000900e00004003200090178000a007800bc
:10220000e5fe0700188c44001807780050c2b300a0
:102210009e4f10003f013a000e07e8000e0c7800b8
:1022200010003700cfb097000100a0000b0037006e
:10223000cfb097000110a00008003700cfb0970082
:102240000120a00005003700cfb097000130a000aa
:1022500002003700cfb097000140a000c1b79f0037
:10226000000ce8001800780090407800b2c2b3007b
:1022700082cf5000f1ff320007003c0002c2b300e1
:1022800082cf5000f0ff320032c2b30082cf500044
:1022900007003a00efff3700d2c2b30082cf5000f0
:1022a000e0ff320002c3b30082cf5000e0ff3200f3
:1022b000a2c2b30082cf50000d003a00000ce8002b
:1022c0001c80e900000e780010007800e0b79f0045
:1022d0000000e0000f003d00cfb097000100a20019
:1022e000c1b79f000000ea00e0b79f000900370077
:1022f00084010700e0b79f0001003700000ce800f0
:10230000180078009000fb000103b100e98f500035
:10231000faff36004fb097000008a3000200320019
:102320000010a100c0b79f0018007800e1c2b30000
:1023300090cf100016003a008000eb00d1b79f004c
:102340000000e800000c7800a1c2b30090cf10009c
:1023500006003a00000ce8001c80e900000e78003e
:1023600010007800d0b79f00090037006501070012
:10237000d0b79f0001003700000ce800180078007b
:102380009000fb000103b100e98f5000faff360016
:102390000800780064ff0700804678001800780085
:1023a0001000fb001102070091062000810f500071
:1023b0003800320012003c0041062000810f50001e
:1023c000340032000a003c0011062000810f50004a
:1023d0002000320031062000810f5000a0003200a2
:1023e00051022000810f5000bc003a00b4003700b9
:1023f00071062000810f5000b8003c0088003700b3
:1024000001072000810f50005c00320007003c00f3
:10241000e1062000810f50007a003200f106200012
:10242000810f5000ad003a003900370051072000fd
:10243000810f50002700320081072000810f5000db
:102440004200320031072000810f5000a3003a0003
:102450008f0037008d80fb000c01780000fe2f00fc
:102460000f004000180207000000e000a800320042
:1024700018007800000ce8009041780002fe2f0060
:102480000f014100f88057000a00780024ff070080
:102490000e0037008d80fb008c01780012002000b8
:1024a00000fe2f000f00400043fe07000000e00088
:1024b00097003200180ce80002fe2f000f014100c7
:1024c000f88057000a00780033fc0700808444003d
:1024d000900037008d80fb008c0178000001eb003c
:1024e00000fe2f000f00400033fe07000000e00058
:1024f00087003200180ce80002fe2f000f01410097
:10250000f88057000a0078002efd0700efff370023
:102510008d80fb008c0178000001eb0000fe2f0095
:102520000f00400024fe07000000e00078003200a9
:10253000180ce80002fe2f000f014100f880570040
:102540000a0078006dfc0700e0ff37008d80fb007b
:102550008c0178000001eb0000fe2f000f0040000e
:1025600015fe07000000e000690032001800780046
:10257000000ce800904178001c0037008c017800c6
:102580000001eb00010f200000fe2f000f004000b3
:1025900009fe07000000e0005d003200180ce800b2
:1025a0000fb097009fb097002fb19700bfb1970071
:1025b000e00f5000e08f5800e00f5900e08f590005
:1025c00009003a00cfb597006fb4970080a72000ac
:1025d000d9fb07000b027800880178000001780021
:1025e00081a720004700370083c7b30002fe2f00f9
:1025f0000f014100f88057000a0078001afd07001b
:10260000b2ff37000b8144008d80fb008c01780005
:1026100000fe2f000f0040003bfe07003c0037008b
:102620008d80fb000c01780000fe2f000f004000a1
:10263000a50107000000e000350032001800780016
:10264000000ce8009041780002fe2f000f014100cd
:10265000f88057000a007800b1fe07009bff3700a2
:1026600000c8b30080cf560029003a00180ce800db
:102670001c80e900000e780010407800e0df9f0029
:1026800013002000e2fd2f000f0141000800370079
:1026900000c8b30080cf56001d003a00180ce800b7
:1026a0001c80e900000e78008001eb00100178002a
:1026b000f88057000a00780045fc070083ff3700c8
:1026c00000c8b30080cf560011003a00180ce80093
:1026d0004fb29700efb19700080037000e0c78005a
:1026e0000000eb00c0b79f00e0b79f000080eb0048
:1026f000d0b79f000002eb00840178001200200098
:10270000e1a720000a0078004afe07006fff3700ab
:10271000180ce800090078004f0778004f06be004b
:102720004f05be004f04be006f01b100000006005f
:102730008200fa00889fbe008a1f7800000578009a
:1027400082047800c13f9f000004eb0010003700b6
:102750000902780088017800a2f72f000f014100dc
:1027600081f72f008f8040000a00780084fe070068
:1027700008004000880f500004003d00b004200015
:10278000905588000084eb000400370000047800b6
:102790004f3897001004e000edff3a000800780081
:1027a0004f0578004f04be000080fa0000000600cc
:1027b000889fbe000004be000000eb000800e0009f
:1027c00018003200180090000058a3000d003200dd
:1027d000d800900068009000808f500009003600fb
:1027e000b80990000001eb00820078000800780032
:1027f00003000100d80090000080eb000100e00021
:10280000080032000000eb00200c980060049800e3
:10281000500498000900e00002003200180078001f
:102820008af707004f04be0000000600889fbe0024
:102830000004be000000eb000800e00025003200ac
:10284000180090000058a30011003200d80090003a
:1028500068009000808f500009003600b809900091
:102860000001eb00820078000800780003000100fe
:10287000d80090000080eb000100e000150032005d
:102880000000eb00200c98006004980050049800b1
:10289000780a900008109000800f52000600310066
:1028a0000002520011002000cfa2de00612bb9000f
:1028b00018007800390007000000eb0000149800b1
:1028c000700c98000900e000020032001800780047
:1028d0005ef707004f04be0000000600800078008d
:1028e0001000200002022000828f500004003200fd
:1028f000e9805000e48f5000010036000000eb003a
:1029000000000600889fbe008a1f7800000578003e
:102910000a047800984478000805e8000900fb00e4
:10292000eeff07000000e000f9ff3a00b0c2b3007c
:1029300080cf540005003200d0c2b3008000eb000d
:1029400080cf540005003a00020037008000eb0001
:1029500001003700110020000804e8000000eb002f
:10296000030037006a02b900020052000003b00001
:102970003801fb0003fd2f0082814100e98f5100e7
:10298000f8ff36000100e00001003a000000ea0014
:102990004f0578004f04be0000000600a0fd2f0088
:1029a000f1ff2f00870007004f89de0082017800c9
:1029b00000000600889fbe008a9fbe008004780049
:1029c0000200e0005b00320001407800814c78009a
:1029d00082814400f1f99f00e20f5100550036005a
:1029e00091449800a1449800e1f99f00d1f99f001b
:1029f000e60f51004f003600b1449800c1f99f0026
:102a0000e80f51004b0036000905ea006305650038
:102a10000a8444000a055100c1ff2f00010565002a
:102a20000080fb008000eb0012102000131020003b
:102a3000e7000700008cbe000a01440060b99f0057
:102a400071b99f00e80f55003a0036002004980045
:102a500031049800400498005104980020b99f0068
:102a600031b99f0040b99f0051b99f00f80f550040
:102a7000300036006004980071049800000c980043
:102a8000110c9800200c9800310c9800400c980014
:102a9000510c980020b19f0031b19f0040b19f00c0
:102aa00051b19f0060b19f0071b19f0000b99f00bc
:102ab00011b99f00640164007801410002044400e0
:102ac000020555006011b8000203be000002be00fe
:102ad0000403be006022b800000072008180720012
:102ae000020173008381730010003700009cbe0058
:102af0000294be00400498005104980062049800bb
:102b000073049800000c9800110c9800220c980097
:102b1000330c9800400c9800510c9800620c9800ff
:102b2000730c98000a02b1000802b000ff0f5500b4
:102b3000eeff3e00090078004f05be004f04be00c6
:102b40000000060001017800800178000082680022
:102b50000408a3000500320013003700324078005b
:102b6000805978000004e00014003200030278006d
:102b70000208a300f9ff3a000300780001003700c3
:102b80000318780082007800b2017800f5ef2f007a
:102b9000838242000382ea00048262000508280062
:102ba00005026200f6ff3200000278003141780031
:102bb000025878000204e000fbff3a0004007800ad
:102bc0000000060002002f00f3ff2f00820f5000cc
:102bd000838f5800040036000000ea0090558800fa
:102be0000080eb008080eb0000000600f1fb2f006e
:102bf00080804000f98f500001003e000050a0008e
:102c000000000600f9ff3700f1f92f008080400036
:102c1000f98f500001003e00f005b20000000600f0
:102c2000f9ff37000000060023fa0700fdff070048
:102c3000fcff3700f28747008e1f78000202780001
:102c4000030178000000e000020032000007780075
:102c500001003700728757008002eb000100e0009e
:102c6000010032008102e90070805700060009006f
:102c70000018eb000080eb0080bf9f0023102000b5
:102c800093bf9f00aebf9f00b1bf9f00c5bf9f0015
:102c90000100e00003003d00b104200091558800d0
:102ca00006003700004feb00eebf9f00debf9f0025
:102cb000840078007080570010fc07004f077800f0
:102cc0002f01b10000000600881f78000004780082
:102cd00000082000808f50001700350010082000e9
:102ce000808f50000b00340030082000808f50008f
:102cf00011003a00920078006880500000097800c6
:102d00003002be002003be00049cbe000694be003c
:102d100007003700920278006480520000097800b2
:102d20001000be000b000700009cbe000294be0015
:102d300010002000010037000000eb004f04780075
:102d40000000060000c0da000000060000c0da0043
:102d5000000006008103780005f907000001be00ad
:102d60006000b8000478a30013003a006220e1007c
:102d700015003e000d0039008301d1000281d3000f
:102d80008180d3008301d1000281d3008180d300f0
:102d90008301d1000281d3008180d3000538b000c7
:102da000c42add00f300b2008381720007f0a7009f
:102db00003f0a0000000060083ff270002002000af
:102dc0006110b900f9ff370003ff2700f7ff370054
:102dd000020ab900001bb9000200b80081004200dd
:102de0008100430000000600889fbe008a9fbe004d
:102df0008c9fbe001b0020000202be0005866800fa
:102e000006002800060666004709de00f20fb20041
:102e1000820032000243e80080003200c729de0051
:102e2000f30fb2007d0032000343e8007b00320064
:102e3000f107b2000170a000f507b2000570a00014
:102e4000c708dd004903de00868070004700dd0012
:102e5000c72add004923de00868272004722dd009a
:102e6000030551000403500085835800030031001e
:102e700000004000818048000a05e9008c1f7800ae
:102e80008a9fbe0004005000858058000402420062
:102e900085824a0000004000818048000005eb0068
:102ea0000004be006033b8000406be000d48e10017
:102eb00056003100110009004dccd8000c01b800bb
:102ec0000d02b8008481410060824a008283530071
:102ed00003045c0084845c0060055d000a00e0007f
:102ee00025003a00800578000d40e10049003100de
:102ef0008800780007007800110009004d88d8008c
:102f00000c01b8000d02b8008481410060824a00c3
:102f10006003110083835b0004045c00e0845c00b8
:102f20000900e00021003a004f01be000300e0006c
:102f30002b003200e3016000070673008c817100f2
:102f400001003200640070004200de004e5edd00d1
:102f50000c007000c258de0001e0a00081000700f4
:102f6000cf017800818071004f06be004f05be0082
:102f70004f04be00000006008c8343000d044c008b
:102f8000e0844c0060054d000000e9000a00e0000c
:102f9000d4ff32008c8343000d044c00e0844c00cd
:102fa00060054d000000e900ceff37000c03430030
:102fb0008d834b0060044c00e0844c000000e9006d
:102fc0000900e000d8ff32000c0343008d834b0062
:102fd00060044c00e0844c000000e900d2ff3700a0
:102fe0004200de004e5edd000c007000c258de00c4
:102ff00001e0a000cf0178000300e000daff32001a
:1030000060001000e0801800d7ff3700f0ff2f00ad
:10301000aaff3700f0ff2f00b9ff37000404be00fd
:10302000a8f70700870678000004fd008104fd0072
:10303000a4f70700078366000678a30003003200a8
:103040000960a7000800be002c0037000d78a3001f
:10305000020032000800be00280037000778a300f5
:1030600026003a0001f0a10009f0a1000668a300c3
:1030700003003200f1ff2700f0ff2f00baff3700f6
:103080000d68a300030032000800be008c807000b1
:10309000b5ff37000768a30007003a000648a30001
:1030a00003003200f1ff2700f0ff2f00aeff3700d2
:1030b0000d48a300030032006000b8008c8070004f
:1030c000a9ff37000748a3000400320001f82700d9
:1030d000000020008c807000a3ff37007400070000
:1030e0000004fd008104fd00020578007000070067
:1030f0000802be008a01780059ff37000160a00075
:1031000012022000a240880097ff37000100e00073
:10311000120032000500e00010003200889fbe005f
:103120008a9fbe008c9fbe000006eb0001f8a30042
:103130000300320060001000e08018000cf0a000d6
:1031400005f8a3000300320060021200e0821a00ba
:103150000cf0a2008005eb0041ff37006000b800d2
:103160000200050081017000270032008002eb00a0
:1031700001f8a3000300320060001000e080180096
:1031800015002000f4072000020242002000340055
:10319000f70320008703600006042000000363009b
:1031a00002082000000161004700de00c909dd00bf
:1031b00000807100c708de000600e0000800320051
:1031c00087037100060032001000b0000180b000db
:1031d0000188a30002003200c108de000402e800fa
:1031e000f107b200f30f20000320e10003003d00cf
:1031f0004722dd00810072002900370001f8270016
:103200000000eb00260037006000b8000000060058
:10321000680212007f20e100020034006000b80064
:103220001f0037006011b8007020e1000400350075
:1032300080017800010078008000eb0070025200ed
:103240000400e00009003400f00312000719dd005b
:103250008419de000703dd00868171000400de00b2
:10326000070bdd00060070008408de00f7ff270072
:103270008383630087037100060028000303630053
:10328000070032000700e00003003a00610160001f
:1032900002817300020032001000b0000180b00013
:1032a0000500a6000000060001f0a00000000600d6
:1032b0004f0ade004709de00f107b200f20fb2004c
:1032c0000b003200f207b1000170a000c708dd005a
:1032d000c901de00838070004700dd000400a60005
:1032e0000000060060001000e080180000000600ea
:1032f000810f700001003a00000006008182cf00bb
:103300000500e00010003e008082cf00ee82420007
:103310007028e1000400390007003e0080007800ba
:103320000000eb000e003700708312008600de0004
:103330000500dd000a003700708352008600dd00c2
:103340000000eb0006003700e28252008508dd0035
:10335000708312000603de00868070000500dd0029
:103360007507b0000501ea000400a6000000060091
:1033700060001000e080180000000600889fbe007a
:103380008a9fbe0030044200b0844a0030054b00e2
:1033900090854b006000b1000898be000a90be0006
:1033a0000440e10005c8e10006d0e10007d8e100d3
:1033b00002003100680040001008e8004f05be0020
:1033c0004f04be0000000600889fbe008a9fbe001a
:1033d0003004be002005be000418540005985c00af
:1033e00006185d0007985d00110020000440e10010
:1033f00005c8e10006d0e10007d8e100010039006e
:103400008000eb00108810004f05be004f04be0086
:10341000000006001200fa00889fbe008a9fbe00ce
:103420008c9fbe00e0b79f00f1b79f0082bf9f0056
:1034300093bf9f000605be000404be000000eb0021
:10344000d0b79f00c0b79f00b0b79f00a0b79f0044
:1034500090b79f00000678005fb19700cfb097004b
:10346000820141003fb097000200e00004003d00ef
:10347000370007007e805700c0ff070003003700b9
:10348000330007007e805700cfff0700dfb69700ac
:103490000d00e0000c0035006fb29700ffb29700fe
:1034a0000fbb97009fbb9700100020000100200079
:1034b0006011b80000027200818272000203730082
:1034c000838373001b0007000c06e8000104200042
:1034d000810f5600e0ff3a000d00e00004003d00bf
:1034e0000802be000a03be007e805700a3ff07004b
:1034f0005fa897000000e00005003a001fb29700a7
:10350000afb297003fb39700cfb397000900070011
:103510006fb09700ffb097000fb997009fb9970061
:103520004f06be004f05be004f04be000080fa00eb
:10353000000006000100070000000600a4b79f007d
:10354000b5b79f00c6b79f00d7b79f000000060021
:103550004f09de0082817100b3b79f004f01de008a
:103560008180400082807000a1b79f008fb09700db
:103570004f09de00000040000200700090b79f007d
:103580007fa897004f01de0081804000828070009c
:1035900081b79f000d0007004f3ade000000400099
:1035a00004007000f0af9f00080007000402420012
:1035b00085824a0006034b0087834b00dfff07002c
:1035c0000802be000a03be00000006002fb29700ea
:1035d000bfb297004fb39700dfb39700000006001b
:1035e000881f780018002000881f780089ff0700d6
:1035f0008f87e9004f04780000000600801feb0071
:1036000084ff07008f87e90000000600889fbe0046
:103610008a9fbe00e00f5000e08f5800e00f590075
:10362000e08f59000c003d006044b8006055b800c0
:103630000000540081805c0002015d0083815d0018
:10364000180020001500070008003d0018000700c2
:103650000004eb00050037000004eb000f0007003a
:1036600002003d001200070018002000dcff0700e8
:103670000800e000060032006022b8006033b800a5
:103680000000520081805a0002015b0083815b00d0
:103690004f05be004f04be0000000600e00f5200c0
:1036a000e08f5a00e00f5b00e08f5b000000060037
:1036b0006044b8006055b8000402540085825c0084
:1036c00006035d0087835d0000000600889fbe0042
:1036d0008a9fbe008c1f7800e00f5000e08f5800da
:1036e000e00f5900e08f59000d003d006044b80024
:1036f0006055b8000000540081805c0002015d004c
:1037000083815d001c0020000820e10009a8e10081
:103710000ab0e1000bb8e1000d003d0008003700e1
:103720000006eb00e00f5200e08f5a00e00f5b0054
:10373000e08f5b0006003d006044b8006055b800b3
:103740000402540085825c0006035d0087835d00ef
:10375000aaff07000c00e000060032006022b8005b
:103760006033b8000000520081805a0002015b0003
:1037700083815b004f0678004f05be004f04be00fa
:04378000000006003f
:020000040000fa
:103784005f5f00000508000000000000000000006a
:103794000000000000fa00000000000000e000004b
:1037a40000e0000000280000fe280000fe280000c1
:1037b40024540000fe54000048c40000c810000057
:1037c400264600006c9200006a0400000a00000013
:1037d40010e00000c0000000003800004482000037
:1037e400000000008244000038000000543800004b
:1037f400fe38000054100000107c0000101000007f
:10380400000000000e0c000000100000101000006a
:103814001010000000000000060600000004000074
:1038240008100000204000007c8a000092a20000e2
:103834007c00000042fe0000020000004e920000e6
:10384400929200006284000082920000b2cc0000d8
:103854001828000048fe000008e40000a2a20000ae
:10386400a29c00003c520000929200008c82000056
:103874008488000090e000006c92000092920000a6
:103884006c62000092920000947800000000000036
:103894002800000000000000022c000000000000ce
:1038a400001000002844000082280000282800009e
:1038b4002828000000820000442800001040000076
:1038c400809a0000906000007c820000ba9a000098
:1038d400723e000048880000483e0000fe9200004e
:1038e400929200006c7c00008282000082440000fe
:1038f400fe820000828200007cfe000092920000a2
:1039040092820000fe90000090900000807c0000f5
:10391400828200008ace0000fe1000001010000019
:10392400fe00000082fe000082000000040200008d
:1039340082fc000080fe0000102800004482000089
:10394400fe0200000202000002fe000040380000f7
:1039540040fe0000fe20000010080000fe7c000075
:1039640082820000827c0000fe90000090900000a3
:10397400607c0000828a0000847a0000fe900000cf
:10398400989400006264000092920000924c00003f
:10399400c0800000fe800000c0fc000002020000a5
:1039a40002fc0000f804000002040000f8fc00001f
:1039b400021c000002fc0000c628000010280000c1
:1039c400c6c00000201e000020c00000869a00002f
:1039d40092b20000c2000000fe8200008282000059
:1039e4004020000010080000040000008282000053
:1039f40082fe000020400000804000002002000001
:103a0400020200000202000000c00000e0100000fa
:103a1400000400002a2a00001c020000fe1400001a
:103a2400222200001c1c000022220000221400009c
:103a34001c22000022140000fe1c00002a2a0000a0
:103a44002a180000001000007e90000040300000a2
:103a54004a4a0000523c0000fe10000020200000f2
:103a64001e00000022be000002000000040200004c
:103a740002bc000000fe0000081400002200000048
:103a840000820000fe020000003e0000201e000034
:103a9400201e00003e100000202000001e1c00001c
:103aa40022220000221c00003e18000024240000f2
:103ab4001818000024240000183e00003e100000e6
:103ac40020200000101200002a2a00002a240000ee
:103ad40020200000fc220000243c00000202000020
:103ae400043e00003804000002040000383c0000da
:103af400020c0000023c0000221400000814000024
:103b0400223200000a0a00000a3c000022260000bb
:103b14002a32000022000000106c00008200000025
:103b240000000000fe00000000000000826c0000a5
:103b34001000000040800000402000004000000011
:103b4400dff700005aff0000ff070000fa7f0000c3
:103b5400fff70000bbf7000038ff00000000000082
:103b640059ff00001f0000005c89000045a100000f
:103b7400d0dd0000f45c0000e07f000043d30000cf
:103b8400eafb0000bd640000dbff0000a7d80000d2
:103b9400ff070000110000005104000021bc0000d8
:103ba40055ad00002003000055ad0000adbd000080
:103bb400118800004553000060fc00009999000042
:103bc40000880000afec0000f18d0000f149000016
:103bd400692a0000692a00007a0600001a90000091
:103be400b2f80000ff0500004d6b00004d6b0000b3
:103bf4009f1c000004b10000deff0000442400000c
:103c04001ff80000fbde0000dfff0000a0fe000044
:103c140024dd00001084000000040000e5af000073
:103c240010840000fef7000056fb0000ebca000001
:103c340010480000feff000031f700003fe70000dd
:103c44009eff0000e07f0000d9ff0000dcae000012
:103c540010f40000ffe70000daff00009ad600002d
:103c6400729700009ad60000b8fd00000ffd000016
:103c7400952500007f8600005374000053740000f3
:103c84003bb60000fcff0000e007000066360000c1
:103c94009cff00001ff80000008000007566000013
:103ca40019000000baba00009b9300008e3d00008a
:103cb4005d7b0000d3070000994e0000b0c00000f7
:103cc400ce180000fff700003cff000036ff0000a4
:103cd400f5fe000010000000bcff0000008400009e
:103ce400646c000020fd000020fa00009adb000054
:103cf40055ef0000d39f00007daf000092db000071
:103d04007aff0000d7fe000027cc000019fe000057
:103d14001bdd00001cb700001080000000f800004c
:103d240071bc00005c430000228a00000efc00000d
:103d34002cf500004a2c0000bdff000085a2000005
:103d440018c600007d860000d96a000012740000c5
:103d540012740000dfff0000ef07000016440000ab
:103d6400b1d5000010040000fbdd000008fb0000da
:103d74001a4700001dec0000f6f60000ffff0000eb
:103d8400bef70000e0ff0000669e00001f1c00005c
:103d94001f1e00001f1e00001f1f00001e1f00002a
:103da4001e1f00000000000000000000007800005a
:103db40000f8000000fc000000fc000000fc000013
:103dc4001e7c00003e7800007f0400009f3f00003e
:103dd4003e1f00003e0c00003e00000004000000f6
:103de400f0000000f0010000e00000001e000000f0
:103df4003f0000003f0000007f0000003f00000083
:103e04003e3800001e7c0000107e00007c7e000016
:103e1400787e0000307c0000003c000000200000a0
:103e2400001e0000001f0000000e0000416300009f
:103e3400636500006c650000726f00006d65000032
:103e44007465000072200000696e0000697400004f
:103e540020650000727200006f7200003a200000ba
:103e6400256400000d0a0000005300007465000082
:103e74007020000064650000746500006374000035
:103e84006564000021200000436f0000756e00008f
:103e9400743d0000257500000d0a00000025000097
:103ea40075000000257300003a0000003a0000008d
:103eb400257300002f000000200100000000000016
:103ec40000000000200100000f00000000000000be
:020000040000fa
:103ed4000600fa00000f78001107980022079800e6
:103ee4001e007800804078002e0090000148780081
:103ef4002e00900011c0b300614898002e0090007d
:103f04009e0090001101be0022009800330098002a
:103f14001e007800e30f50002f003200e30f500022
:103f240005003e00e10f500015003200e10f500083
:103f34001e003e0007003700e60f50003e0032002e
:103f4400e70f500048003200e50f50002e00320009
:103f5400570037002e0090009e0090001102be0012
:103f64002400980035009800a102900045009800b4
:103f74002e009000416f220011009800500037007d
:103f84002e0090009e0090001103be0026009800b1
:103f940037009800a1039000470098002e0090007d
:103fa400e170220011009800450037002e009000b7
:103fb4009e0090001101be0022009800330098007a
:103fc400a1019000430098002e009000c1722200cd
:103fd400110098003a0037002e0090009e009000d7
:103fe4003102be002103be00240098003500980071
:103ff40046009800570098002e009000a1742200fb
:10400400110098002e0037002e0090009e009000b2
:104014003102be002103be00240098003500980040
:1040240046009800570098002e009000c1762200a8
:1040340011009800220037002e0090009e0090008e
:104044003102be002103be00240098003500980010
:1040540046009800570098002e009000e178220056
:104064001100980016003700ae0090001e0090006a
:10407400e4804000b0187800a0107800e48040008c
:1040840064004000b0187800a0107800e48040007c
:1040940064004000900878008180e8000080e80017
:1040a4002e009000017b22001100980004003700cc
:1040b4002e009000e16d2200110098000000000025
:1040c4000080fa00000006000400fa00204798006f
:1040d400314798002e4090008080fb003e409000c5
:1040e4000000fb00008f400020bc29001040780035
:1040f4000080fb009e0f500003003d0020bc2900ff
:1041040010407800080037001e0078000000e0002e
:1041140002003d000040eb0003003700be40900069
:104124002e40900000c040000080fa00000006000d
:104134000200fa00004f78001147980020bc2900c3
:10414400104078009e40780080cf500005003e006b
:1041540030bc2900104078009e40900080cf500071
:10416400020036000000eb0007003700f1c5b30081
:104174001e40780053060700f1c5b3001e409000ae
:104184003b060700930607000080fa0000000600c3
:104194000400fa00004f78001147980012079800b5
:1041a40020bc2900104078009e40780080cf500049
:1041b4000e003e0030bc2900104078009e40900064
:1041c40080cf50000b003e00f1c5b3001e407800c4
:1041d4003c060700f1c5b3001e409000240607000a
:1041e4001e009000a4060700030037000000000032
:1041f40001003700000000000080fa000000060003
:104204000e00fa00004f9800114f9800224f9800ba
:10421400630798000e4890008080fb002e489000b1
:104224000080fb008080500020bc290010407800f2
:104234000080fb00808f500070003c001e489000fe
:104244008080fb002e4890000080fb00808050009e
:1042540030bc2900104078000080fb00808f5000a3
:1042640068003c002e4890000004e00001003a0081
:1042740010c0b300204f98002e4890008040780072
:104284000e48900090ff0700204798002e489000a9
:104294000040ea00804078000e4890008aff070042
:1042a400304798002e489000804078001e489000c7
:1042b40085ff0700404798002e4890000040ea0020
:1042c400804078001e4890007fff07005047980008
:1042d400be409000014f7800430037000e48900024
:1042e4009e4f5000030039000e4890001e405000bd
:1042f400030037009e4078000e48900000c0500034
:1043040060479800de409000114798003100370064
:104314009e4890001e40900080cf50000400390059
:104324009e4890001e40900000c0500003003700db
:104334009e4090001e48900000c0500070479800b6
:104344007e4090008080fb006e4090000080fb0067
:10435400808040002e4890000080fb00808f500039
:10436400150034007e4090008080fb007e40900069
:104374000080fb000088b900000178006e409000c6
:104384008080fb006e4090000080fb000088b90034
:1043940000007800000141002e4890008080fb005e
:1043a4002e4890000080fb000088b90000007800cf
:1043b400800f510004003c006e0190009e4090006c
:1043c4001e40780072ff07001e4090000040e80085
:1043d400104798009e4090004e40900080cf5000bf
:1043e400cbff39001e4fe8002e4090009e4078001d
:1043f40080cf5000b9ff39000300370000000000ef
:1044040001003700000000000080fa0000000600f0
:104414000c00fa006047980071479800024f98001a
:10442400530798000040eb00104798000040eb0051
:10443400204798000040eb00304798000000eb0054
:10444400200798000e4890000004e00001003a00a4
:1044540010c0b300004f98000e4890000040e800e0
:10446400004f78000040eb00104798000040eb003c
:10447400204798000000eb002007980067003700f1
:104484001e4090000000fb00000040000000e80017
:10449400ae00900000804000200798001e4090006d
:1044a4000040e800104798002e0090000000e00053
:1044b4005a0035004c003700ae4090003147980058
:1044c40043003700ae4090007e40900080c0400022
:1044d4003e4190006e409000004041005e0190001b
:1044e4002bff07002e409000fe40900080c050003b
:1044f4003e4190006e409000004041005e019000fb
:1045040023ff0700ae4090007e40900080c0400032
:104514003e4090006e419000004051005e019000ca
:104524001bff07002e409000fe40900080c050000a
:104534003e4090006e419000004051005e019000aa
:1045440013ff0700be4090007e40900080c04000f2
:104554002e4190006e409000004041005e019000aa
:104564000bff07003e409000fe40900080c05000ca
:104574002e4190006e409000004041005e0190008a
:1045840003ff0700be4090007e40900080c04000c2
:104594002e4090006e419000004051005e0190005a
:1045a400fbfe07003e409000fe40900080c050009b
:1045b4002e4090006e419000004051005e0190003a
:1045c400f3fe07003e4090000040e80030479800aa
:1045d4003e4090009e4f5000baff35002e409000a0
:1045e4000040e80020479800ae4090001e40900034
:1045f40080cf5000b0ff35009e00fb00e0ff2f008d
:104604000088b900000078000000e800ae009000c7
:1046140000804000200798001e4fe9001e409000d3
:104624009e40780080cf500095ff3d000080fa0046
:10463400000006000a00fa0040479800514798001d
:104644006247980073479800440798007e409000a2
:104654000080fb000000d10000407800ee40900094
:1046640000c040006047980064003700ee409000ae
:10467400014f78000040eb00104798000000eb0069
:1046840010079800560037009e4090005e4090004e
:1046940080c040001e4178004e4090000040410020
:1046a4004e019000bafe07001e409000de409000cc
:1046b40080c050001e4178004e40900000404100f0
:1046c4004e019000b2fe07009e4090005e409000b4
:1046d40080c040001e4078004e41900000405100d0
:1046e4004e019000aafe07001e409000de4090009c
:1046f40080c050001e4078004e41900000405100a0
:104704004e019000a2fe07009e4078005e4090009b
:1047140080c040001e4190004e4090000040410087
:104724004e0190009afe07001e407800de40900083
:1047340080c050001e4190004e4090000040410057
:104744004e01900092fe07009e4078005e4090006b
:1047540080c040001e4090004e4190000040510037
:104764004e0190008afe07001e407800de40900053
:1047740080c050001e4090004e4190000040510007
:104784004e01900082fe07001e4090000000fb00d6
:10479400000040000000e8009e00900000804000ff
:1047a400100798001e4090000040e8001047980051
:1047b4001e0090000000e000090035009e00fb0090
:1047c400e0ff2f000088b900000078000000e80036
:1047d4009e00900000804000100798001e4fe900e2
:1047e4001e4090009e40780080cf5000a6ff3d0000
:1047f4006e4090000040e900604798007e409000c1
:104804000080fb000000ea004f00de00004078005a
:10481400fe4090008140e900714798000004e000e8
:1048240092ff3a000080fa00000006000e00fa0031
:104834006047980071479800024f9800134f980002
:10484400244f9800650798002e4890000004e0006b
:1048540001003a0010c0b300204f98008e48900029
:104864006e40900000c05000304798009e48900071
:104874007e40900000c0500040479800ce40900019
:104884003e40900000c0500020479800fe40900039
:1048940011479800ee409000014f78002c0037003b
:1048a4009e00fb0020bc2900104078000080fb0023
:1048b400808f500017003c001e4090008000fb00d9
:1048c40030bc2900104078000080fb00808f50002d
:1048d40010003c002e489000e14f500005003e00bf
:1048e4009e4090001e4078006e01900028fe070054
:1048f400080037002e4890000080fb000000d10023
:10490400004178009e4090001e407800ee01900027
:10491400bffe07002e4090000004e00007003500b1
:104924001e4090000040e80010479800ae40900000
:104934003e40900000c0500020479800ae409000d8
:104944004e40900000c04000204798001e4fe800f1
:104954009e00fb000e4890000080fb00808f5000fa
:10496400cfff35000080fa00000006000800fa00be
:1049740020479800314798004247980053479800d1
:1049840034079800ce4090002e4090004d0407005c
:10499400de4090003e40900035040700ae40900099
:1049a400014f780010003700be4090001147980076
:1049b400050037003e009000af0407001e40900041
:1049c4000040e800104798001e4090008080fb00e3
:1049d4005e4090000080fb000000e800808f5000e3
:1049e400f4ff35001e4fe8009e80fb004e4090000f
:1049f4000080fb000000e800808f5000eaff3500d3
:104a04000080fa00000006001000fa00004f980031
:104a1400114f9800224f9800334f9800444f98004c
:104a2400750798004e4890000080fb0001fe2f009f
:104a34008080400040bc2900104078000080fb00ca
:104a44000088b900000078008000780060bc29006c
:104a5400008f40000000eb00100798003c00370076
:104a64001e00780090407800614798001e0fe8000f
:104a740050bc2900104078008080fb003e48900024
:104a84000080fb000088b90000007800200798002f
:104a9400270037006e4090000080fb00610060003a
:104aa400004078000004e000180032002e0090005e
:104ab400804078001e48900080c040003e4890002e
:104ac40000c040008041e9001e0090008040780052
:104ad4000e48900080c040002e48900000c0400066
:104ae4000041e9002e009000804078001e489000ac
:104af40080c040001e009000004278000e489000e4
:104b0400004042007e02900098ff07006e40900033
:104b14000080fb000000d100604798003e489000f0
:104b24000080fb00ae009000008050002007980039
:104b34002e0090000000e000d6ff3a002e489000be
:104b44000080fb009e009000008040001007980049
:104b540040bc2900104078008080fb002e48900063
:104b64000080fb000088b900000078008000780015
:104b74001e009000808f5000b9ff3e000080fa00b4
:104b8400000006000800fa00004f78001147980062
:104b94002247980033479800240798003507980067
:104ba400150037002e00900010407800ae009000f1
:104bb4008100e80021079800be02900000427800be
:104bc400be4190002e4190009e4090001e4078000f
:104bd4008dff070040bc290010407800ae409000d3
:104be4008180fb000088b900000078000040780054
:104bf4001e404000004fe8002e0090001040780056
:104c04000004e000e7ff3a000080fa00000006001c
:104c14001400fa00889fbe00204f9800314f98007e
:104c240062079800634f9800744f9800050f98002e
:104c34002657980000c2b300604798006e48900061
:104c44000004e000020032006e48900001003700ca
:104c540010c0b300604f98007e4890000004e0004c
:104c6400020032007e4890000100370010c0b300fb
:104c7400704f98000040eb00004f78004700370069
:104c84000e0890001001be00120798002307980038
:104c94000e08900064004000000f98001e40780049
:104ca400fe4890008180fb000088b9000000780075
:104cb400804078003e48900000c040007047980053
:104cc4000040eb00104798002f0037001e009000b2
:104cd400ae00900000007800610060008004eb00ea
:104ce400000478000800be00e00f5000e08f580078
:104cf4001c003a006e4090008080fb001e40900033
:104d04000080fb000080500000407800ee489000d6
:104d14008180fb000088b9000000780080407800a2
:104d24002e48900000c04000004f9800fe409000c4
:104d34007e48900000c040008040e9000e49900089
:104d44006e489000004041000040e9006e0290006f
:104d54008141780000417800fe4090000e489000a8
:104d640002ff07001e009000ae0090008100d100f9
:104d74000080d30010079800210798001e4090007f
:104d84000040e800104798009e4090006e4090005c
:104d940080cf5000cdff39001e4fe8002e50900008
:104da4009e40780080cf5000b5ff39004f04be000c
:104db4000080fa00000006000200fa00000f7800ec
:104dc4001e007800200190001e007800f040900042
:104dd4001e00780060409000edfc07000080fa009f
:104de400000006000200fa00000f78001e007800a0
:104df400a00190001e007800004990001e00780079
:104e0400f04090001e0078006040900080fd070094
:104e14000080fa00000006000200fa00000f78008b
:104e24001e007800200290001e0078009049900037
:104e34001e007800004990001e007800f0409000a9
:104e44001e00780060409000fafd07000080fa0020
:104e5400000006000200fa00000f78001e0078002f
:104e6400200290001e007800904990001e007800f7
:104e7400004990001e007800f04090001e00780069
:104e840060409000b9fe07000080fa0000000600b0
:104e94000200fa00000f78001e007800a0029000c3
:104ea4001e007800004a90001e007800a04990007f
:104eb4001e007800104990001e007800f040900019
:104ec4001e0078006040900058fe07000080fa0041
:104ed400000006000200fa00000f78001e007800af
:104ee400a00290001e007800204a90001e00780066
:104ef400904990001e007800004990001e00780040
:104f0400f04090001e00780060409000befe070054
:104f14000080fa00000006000200fa00000f78008a
:104f24001e007800a00290001e007800500290003d
:104f34001e007800904990001e00780000499000ff
:104f44001e007800f04090001e0078006040900041
:104f54000cff07000080fa00000006000200fa00bf
:104f6400000f78001e007800404b90001e0078006f
:104f7400d00290001e007800104a90001e007800b5
:104f8400804990001e007800200190001e007800e7
:104f9400f04090001e007800604090001cff070065
:104fa4000080fa00000006000a00fa00404798005a
:104fb4005147980032079800034f9800144f980007
:104fc4000040eb00004f7800250037001e80fb00f6
:104fd40000004000be009000008040009000780077
:104fe400110798000040eb001047980017003700a5
:104ff4000e4890000080fb008000e9001e409000f5
:105004000080fb0000805000110020000008dd003b
:10501400800078001e009000008060000000e00026
:105024000700320002f684005e4090009e4040007b
:10503400ce4190001e40900000c0410054fc070087
:105044001e4090000040e800104798009e409000e9
:105054000e48900080cf5000e5ff39001e4fe80055
:105064001e4890009e40780080cf5000d7ff390042
:105074000080fa00000006000000fa006c06070039
:105084002a0007005f0007004600070052000700df
:1050940010030700290307007f000700c0aa2000af
:1050a4006a010700df00070080ed84000002780039
:1050b400f3c0b300f2c0b3008040eb000040eb004b
:1050c4002afe070005c8bf00e94f500013003e0048
:1050d40001c8bf000004e0001000320004c8bf0093
:1050e4000004e0000700320004c1b30003c1b300b0
:1050f40082ed29008040eb000040eb00aaff07008e
:105104000600370004c1b30003c1b30082ef2900d5
:105114008040eb000040eb00a3ff070000a8210043
:105124006100200028060700dbff37000000fa00ba
:10513400103380000080a1001033880010338000f9
:105144000090a100103388001033800000b0a0004c
:10515400103388001033800000c0a0001033880092
:10516400b033800000c0a000b03388007e26ef007a
:105174004627ef004827ef00f00f2100503a88003f
:105184004c27ef00603a80000030a000603a8800ad
:10519400303a800000f0a000303a88000080fa0025
:1051a400000006000000fa009021ef0090d02300d8
:1051b400900c8800a10c8000000320000100700006
:1051c400a00c88009421a90094c1a90095e1a8002d
:1051d4000080fa00000006000000fa00410580008b
:1051e400f0ff2800808060000000250001007000ae
:1051f400400588008860a9009860a8000080fa0033
:10520400000006000200fa0082c0b300d1c2b3005d
:10521400a0c3b300f8040700000f78001e00780054
:105224000000e000060032001e007800801f7800b5
:1052340080f12900801f78006bf00700e487570095
:105244000080fa00000006000200fa00000f780057
:105254001e0078000001780021c3b300a0c3b3008e
:10526400c10407001e80e8000001780041c3b300b8
:10527400a0c3b300bc0407009e0078006480400013
:105284000001780061c3b300a0c3b300b6040700f3
:105294000080fa00000006002000fa00889fbe008b
:1052a4007a004700e8ff07005e089000cf80de0028
:1052b40033ed0700020020000308240021ee07005c
:1052c400008fbe006e089000cf80de002ced07003a
:1052d40002002000030824001aee070020079800ab
:1052e400310798007e089000cf80de0024ed07008f
:1052f400020020000308240012ee07004007980073
:10530400510798001e01be001e00be000dee0700ee
:105314000004be002e019000be0190002e009000fb
:10532400be00900007ee07000001be000800be00aa
:105334001fed07000004be004e019000de01900046
:105344004e009000de009000feed07000001be005c
:105354000800be0016ed070099ef070060079800eb
:1053640071079800a0f68400b1f684000001be0025
:105374006e009000fe00900004ed070001f0a10013
:10538400000f9800110f98000000200081342400c1
:10539400200f9800310f980018c0b3002e09900018
:1053a400be0990000e0890009e089000f2ec0700e1
:1053b4000000e00001003c000044eb00085f98009e
:1053c4000e59900011802000824878000e589000f9
:1053d4000004e0000d00320000c8bf000004a20079
:1053e4000004e00009003200104080000000e800e2
:1053f4001040880010408000801f780070f329005e
:10540400801f7800f8ef0700e48757000e599000da
:1054140001802000824878004f04be000080fa001a
:10542400000006000600fa0010408000801f78008b
:1054340010f52900801f78000e00780006f00700a0
:10544400e48757008e00780050aa200027f0070058
:105454000000e0001500320081ed840050aa200015
:10546400810278000002780013c0b30012c0b300b8
:1054740021c0b300c0c0b300c2fd070001f6840020
:105484000e007800810278000002780013c0b30097
:1054940012c0b30021c0b300c0c0b300b9fd0700ff
:1054a4008e00780050aa20001bf007000080fa004c
:1054b400000006000400fa00100798001e00900087
:1054c400204090008040e8001e0090002140980099
:1054d4001e009000a0409000b0c3b30080cf5000e5
:1054e4003a0036001e0090008040eb0021409800f6
:1054f4001e009000104090008040e8001e009000c4
:10550400114098001e00900090409000b0c3b3007a
:1055140080cf50002d0036001e0090008040eb002c
:10552400114098001e009000104078008040e80070
:105534001e009000014878001e0090001040780082
:10554400f74f5000210036001e0090008040eb0011
:10555400014878001e009000304090008040e80030
:105564001e009000314098001e00900040409000c2
:10557400004fe9001e009000b04090001e80fb0028
:1055840082ec29006240780080cf50000f00360082
:105594001e00900011c0b300314098001e0090001e
:1055a400404090008040e8001e0090004140980078
:1055b4001e00900040409000ec4f50000300360065
:1055c4001e00900011c0b300414098000080fa0012
:1055d400000006000400fa00004f7800110798004c
:1055e4009e80fb00d0cc2c000008b8004308de00ed
:1055f400004078000043b000804078001e00900016
:10560400014878001e0090008001e8001e81fb0024
:10561400d0cc2c000010b8004308de006a00b900aa
:105624000000780000005100004078000043b00002
:10563400804978001e0090000080e8008040eb0064
