:020000040000fa
:080000000001040000000000f3
:020000040000fa
:0400080034020000be
:020000040000fa
:04000c007602000078
:020000040000fa
:04001000b602000034
:020000040000fa
:040014005402000092
:020000040000fa
:04001800960200004c
:020000040000fa
:04001c00900300004d
:020000040000fa
:040020009003000049
:020000040000fa
:040024009003000045
:020000040000fa
:040028009003000041
:020000040000fa
:04002c00900300003d
:020000040000fa
:040030009003000039
:020000040000fa
:04003400d6020000f0
:020000040000fa
:040038009003000031
:020000040000fa
:04003c00900300002d
:020000040000fa
:040040009003000029
:020000040000fa
:040044009003000025
:020000040000fa
:040048009003000021
:020000040000fa
:04004c00900300001d
:020000040000fa
:040050009003000019
:020000040000fa
:040054009003000015
:020000040000fa
:040058009003000011
:020000040000fa
:04005c00900300000d
:020000040000fa
:040060009003000009
:020000040000fa
:040064009003000005
:020000040000fa
:040068009003000001
:020000040000fa
:04006c0090030000fd
:020000040000fa
:0400700090030000f9
:020000040000fa
:0400740090030000f5
:020000040000fa
:0400780090030000f1
:020000040000fa
:04007c0090030000ed
:020000040000fa
:0400800090030000e9
:020000040000fa
:0400840090030000e5
:020000040000fa
:0400880090030000e1
:020000040000fa
:04008c0090030000dd
:020000040000fa
:0400900090030000d9
:020000040000fa
:0400940090030000d5
:020000040000fa
:0400980090030000d1
:020000040000fa
:04009c0090030000cd
:020000040000fa
:0400a00090030000c9
:020000040000fa
:0400a40090030000c5
:020000040000fa
:0400a80090030000c1
:020000040000fa
:0400ac0090030000bd
:020000040000fa
:0400b00090030000b9
:020000040000fa
:0400b40090030000b5
:020000040000fa
:0400b80090030000b1
:020000040000fa
:0400bc0090030000ad
:020000040000fa
:0400c00090030000a9
:020000040000fa
:0400c40090030000a5
:020000040000fa
:0400c80090030000a1
:020000040000fa
:0400cc00900300009d
:020000040000fa
:0400d0009003000099
:020000040000fa
:0400d4009003000095
:020000040000fa
:0400d8009003000091
:020000040000fa
:0400dc00900300008d
:020000040000fa
:0400e0009003000089
:020000040000fa
:0400e4009003000085
:020000040000fa
:0400e8009003000081
:020000040000fa
:0400ec00900300007d
:020000040000fa
:0400f0009003000079
:020000040000fa
:0400f4009003000075
:020000040000fa
:0400f8009003000071
:020000040000fa
:0400fc00900300006d
:020000040000fa
:040100009003000068
:020000040000fa
:040104009003000064
:020000040000fa
:040108009003000060
:020000040000fa
:04010c00900300005c
:020000040000fa
:040110009003000058
:020000040000fa
:040114009003000054
:020000040000fa
:040118009003000050
:020000040000fa
:04011c00900300004c
:020000040000fa
:040120009003000048
:020000040000fa
:040124009003000044
:020000040000fa
:040128009003000040
:020000040000fa
:04012c00900300003c
:020000040000fa
:040130009003000038
:020000040000fa
:040134009003000034
:020000040000fa
:040138009003000030
:020000040000fa
:04013c00900300002c
:020000040000fa
:040140009003000028
:020000040000fa
:040144009003000024
:020000040000fa
:040148009003000020
:020000040000fa
:04014c00900300001c
:020000040000fa
:040150009003000018
:020000040000fa
:040154009003000014
:020000040000fa
:040158009003000010
:020000040000fa
:04015c00900300000c
:020000040000fa
:040160009003000008
:020000040000fa
:040164009003000004
:020000040000fa
:040168009003000000
:020000040000fa
:04016c0090030000fc
:020000040000fa
:0401700090030000f8
:020000040000fa
:0401740090030000f4
:020000040000fa
:0401780090030000f0
:020000040000fa
:04017c0090030000ec
:020000040000fa
:0401800090030000e8
:020000040000fa
:0401840090030000e4
:020000040000fa
:0401880090030000e0
:020000040000fa
:04018c0090030000dc
:020000040000fa
:0401900090030000d8
:020000040000fa
:0401940090030000d4
:020000040000fa
:0401980090030000d0
:020000040000fa
:04019c0090030000cc
:020000040000fa
:0401a00090030000c8
:020000040000fa
:0401a40090030000c4
:020000040000fa
:0401a80090030000c0
:020000040000fa
:0401ac0090030000bc
:020000040000fa
:0401b00090030000b8
:020000040000fa
:0401b40090030000b4
:020000040000fa
:0401b80090030000b0
:020000040000fa
:0401bc0090030000ac
:020000040000fa
:0401c00090030000a8
:020000040000fa
:0401c40090030000a4
:020000040000fa
:0401c80090030000a0
:020000040000fa
:0401cc00900300009c
:020000040000fa
:0401d0009003000098
:020000040000fa
:0401d4009003000094
:020000040000fa
:0401d8009003000090
:020000040000fa
:0401dc00900300008c
:020000040000fa
:0401e0009003000088
:020000040000fa
:0401e4009003000084
:020000040000fa
:0401e8009003000080
:020000040000fa
:0401ec00900300007c
:020000040000fa
:0401f0009003000078
:020000040000fa
:0401f4009003000074
:020000040000fa
:0401f8009003000070
:020000040000fa
:0401fc00900300006c
:020000040000fa
:10020000efb120000e7f24000e01880000000000e6
:10021000000020000000e000020032000001200089
:1002200020028800140007008a0107000000e00097
:1002300003003a0080e5230001002000020037009f
:100240000000200001002000810f7000010032003a
:1002500014000700000020000000e000020032004f
:100260000000020000000000f22d0200000000006b
:100270000040da000000fe004440a900c048200011
:100280000000e00003003200002020009001880000
:100290004440a800000006008a1f78008b1f7800e9
:1002a00000000600a1028800800478000000eb0036
:1002b0001f003700e284440054a0b4009905ba003e
:1002c000e284440054a0b4009906ba00e2844400d9
:1002d00054a0b4000006eb00476fde00fd07b2003b
:1002e000ae018800636ce10003003a00eaff0700fa
:1002f0000000eb000e003700606ce10008003a00df
:10030000004deb000a05e800020039003420ec0043
:100310000af0a0008b05e900f9ff3e000400370059
:100320006168e100010032000086eb000b0007006d
:1003300019c7ba001905ba000e04e00003003a001c
:100340000a00e000dbff3a0000000600fe07b200f2
:10035000ae0288008a047800f5ff37000cd0a300b5
:10036000e20f4d001c00390089027800354dba00bb
:100370000a05e800020039003420ec000af0a00071
:100380008b05e9000f003200254dba000a05e80090
:10039000020039003420ec000af0a0008b05e900cf
:1003a000080032000c00e0000600320015cdba0053
:1003b0000a05e800020039003420ec000af0a00031
:1003c0008b05e9008984e80054a0b4000b00e0002c
:1003d000e2ff3a00000006009902ba00055d7800cd
:1003e0008b05e900f7ff3200c82ade00055d7800c2
:1003f0008b05e900f3ff32000c00e000f1ff320052
:1004000019ddba00eeff3700aa3a04000000000030
:10041000e236040000000000fc360400000000008a
:100420001a37040000000000383704000000000004
:100430005a370400000000007c3704000000000070
:100440009e37040000000000cc36040000000000cd
:10045000d414040000000000860f04000000000017
:10046000140b0400000000003600f800809fbe005e
:10047000829fbe00849fbe00869fbe000000fa00df
:100480008020a9000000eb00431f07000080fa0055
:100490004f03be004f02be004f01be004f00be0022
:1004a0003600f900004006003600f800809fbe00cc
:1004b000829fbe00849fbe00869fbe000000fa009f
:1004c0003a1f07008040a90010002000321f0700db
:1004d0000080fa004f03be004f02be004f01be0075
:1004e0004f00be003600f900004006003600f8005c
:1004f000809fbe00829fbe00849fbe00869fbe007c
:100500000000fa008060a90020002000221f0700e0
:100510000080fa004f03be004f02be004f01be0034
:100520004f00be003600f900004006003600f8001b
:10053000809fbe00829fbe00849fbe00869fbe003b
:100540000000fa008080a90030002000121f070080
:100550000080fa004f03be004f02be004f01be00f4
:100560004f00be003600f900004006003600f800db
:10057000809fbe00829fbe00849fbe00869fbe00fb
:100580000000fa008600a90070002000021f07008a
:100590000080fa004f03be004f02be004f01be00b4
:1005a0004f00be003600f900004006003600f8009b
:1005b000809fbe00829fbe00849fbe00869fbe00bb
:1005c0003200f8003400f80010002000a00188007c
:1005d00000202000900188000200fa00a0b0200056
:1005e0003711070014c8bf000004a2000080fb0000
:1005f0000040780014e8b70060408000714080003f
:1006000061004000e0804800604088007140880040
:1006100021338000008020000080600000f0a700ef
:100620000000ea000000e9004f00de00004f780003
:100630001e4078000004e000120032001cc8bf0019
:100640000040e8001ce8b7001cc8bf00e14f5000a4
:100650000d00360016c8bf000004a2000004e00030
:100660000900320010c0b30016e8b7001768ef00a9
:100670005d14070010c0b30018e8b7001c68ef0055
:10068000010037001c68ef0016c8bf000004a2007c
:100690000004e0001800320002c8bf000004a200fd
:1006a0000004e0000400320006c8bf000040e8007b
:1006b00006e8b700010037000668ef0007c8bf0072
:1006c0000080fb008000e800c003200000017800eb
:1006d000110009008200d8008000fd000040780071
:1006e00007e8b70007c8bf000080fb0061a3200037
:1006f0000041eb00827078008860a9000080fa0059
:100700003400f9003200f9004f03be004f02be0072
:100710004f01be004f00be003600f9000040060049
:100720000040da000000fe000a00fa00110020007c
:10073000b1bf9f00c0bf9f006a805700e00907005b
:100740004fb897000080fa00000006000a00fa0087
:10075000e20f500034003e00e0588000e10f5000ee
:1007600003003200e20f500011003a000c00370085
:10077000833920000300e00001003a000040da0065
:100780009803e20002003500a023ef0099e3a800df
:100790009b43ab000d003a009b43a8000b003700c1
:1007a000e33a20000300e00001003a000040da00d4
:1007b000ae03e20002003500b623ef00afe3a8006d
:1007c000b143ab0001003a00b143a80082017800b8
:1007d0000b0037003102fb00e10f500004003a002b
:1007e0009b23ab00feff3a00e41c880003003700a7
:1007f000b123ab00feff3a00941d88008301e9009d
:100800000300e000f3ff3a00e10f500003003a005c
:100810009b03ab00feff32000b003700b103ab00bf
:10082000feff32000800370033002000b3bf9f00f6
:10083000c0bf9f00d1bf9f00e2bf9f006a805700ea
:10084000a10907006fb99700020078000080fa0044
:1008500000000600000005001400200027023700f9
:10086000f4ff2f00250237000001be001e00070024
:100870000470a70003f0a10003f8a30013003a00de
:100880006509b10010003200090035006928e10057
:1008900002003500010028000000050000004000b3
:1008a000818048008502e900fcff3a000000060054
:1008b000f88f4200050035008100d1000080d30090
:1008c0008502e800fcff3a00000006008000eb0013
:1008d000000005004f89de00820178002202370007
:1008e0006011b80030023700c70ade00f107b2001d
:1008f000f50fb20008003200e1cf420002003200e2
:100900000170a00024000500810f7000010032007a
:100910000408050044000500810f700002003a0041
:10092000140005008502e9000000400081c0480075
:10093000fcff3b000170a0002400050007f8270021
:10094000078361000638e10004003a00f707200041
:10095000878361008703710001003a0003f0a20061
:10096000889fbe008a9fbe008c9fbe00470ade00a3
:100970000480a100c71ade000580a100070028003e
:100980000785600087856100f70f20000720e100e0
:100990009e0032000728e1009c003200010678002a
:1009a0000400e000b4003200f707200087806000f8
:1009b0000170a0000500e000c0003200f707200031
:1009c000878161000370a000050652000f003a0005
:1009d0000b50e1000b0032000308e10002003a0076
:1009e0000200e1007e0032000204500083845800bf
:1009f000040031000001fd008101fd008402fd00c2
:100a00008a05fd006044b800210037000520e100a0
:100a100005003d000001fd008101fd008402fd0094
:100a20008a05fd00050652007a60e10005003500e8
:100a30000170a1004722dd00848070008a80700070
:100a4000630037006044b800ef02660007ff2f0024
:100a5000070666000500e00006003400f08312007f
:100a60008714dd000511de00071bdd0006017100a3
:100a70008519de007060e10005003500090478008a
:100a800082047800030178008001eb0070065600b4
:100a90000b50e10003003a00020040008380480050
:100aa0000400370060041400e0841c0002005800b9
:100ab000838058000188a300060032008100d10025
:100ac0000080d3008984d3000884d3000402e800a6
:100ad000270037000178a30025003a000100e0005c
:100ae000030032008186cf00698656000a00370075
:100af0008c0020000000e00004003a0009007800ab
:100b0000880478000004eb00700252008086cf0059
:100b10000d0646000c06e9007060e1000600350095
:100b20008000780009007800880478000004eb0059
:100b300070065600700252000c00e0000c003400f9
:100b40008c08dd00f00316000703de0086807000cd
:100b50000c00dd00074bde00060070008c4cdd0051
:100b60000743de00868474000c44dd000c02520052
:100b70006120e100200035006101600007002800cd
:100b800087816400f7ff27008783640007037400f0
:100b90000300e0000600320082037300040032000c
:100ba0000000e800e08048000188a3000e003a0041
:100bb000f70f20000720e1004a003d000170a1006e
:100bc0004722dd00810072008a8070000000be00b4
:100bd0004f06be004f05be004f04be0000000600d9
:100be0006000b800faff37008100d1000080d30018
:100bf0000402e800eeff3700040178008901740068
:100c0000c20007008a807000f1ff3700180107005a
:100c1000070278000001fd008101fd0014010700ba
:100c200087027800850372000778a3000400320071
:100c30000001fd008101fd0027010700e4ff3700ee
:100c4000850362000768a300080032000b50e10032
:100c500003003200f0ff2f00f1ff2700dcff370018
:100c60000001fd008101fd00d9ff37000468a300e9
:100c7000d7ff3200faff3700f8ff270088836000b3
:100c80000b003a000000e00009003a008303640012
:100c900082837300020032000200be00ccff3700e6
:100ca0000b50e100ceff3a000200be00c8ff370043
:100cb00014002000810064003eff3700f8ff270089
:100cc0008883610004003a000200e00002003a005c
:100cd0008c007800beff37001500200083016400ff
:100ce00039ff370001f8270000002000810075005f
:100cf000b7ff37000383680007002800070363007d
:100d0000470ade000480a100c71ade000580a100aa
:100d1000f70f20000720e100420032000728e10021
:100d200040003200889fbe008a9fbe008c1f780062
:100d3000f107b200f307b2000400e00064003200e3
:100d40000170a0000500e000680032000370a00000
:100d500085054200eb07b1000204b8000302b800a9
:100d60008484440060854a00020ab80084844400f8
:100d70000a854a00030ab800040545000400330050
:100d80000804d0008984d2000a85d2008b05e900ce
:100d90006158e1003d0035000210200009016100aa
:100da0000308200089816100f70720008783640021
:100db00008867300c84cde00c853dd0087847400c9
:100dc0004855de000300e000060032008203760092
:100dd000040032008904e80060054d000a88a30081
:100de0000c003a00f70f20000758e10044003d00d6
:100df0000a70a100c75ddd000a8575008a007300d6
:100e0000090078004f0678004f05be004f04be0071
:100e1000000006000a05d1008984d3008b05e80094
:100e2000f0ff3700881f7800060478009000070064
:100e3000070278000001fd008101fd008c00070021
:100e400087027800850372000778a300050032004e
:100e50000001fd008101fd009f0007004f047800a4
:100e600000000600850372000748a300030032005b
:100e7000f0ff2f00f1ff2700f8ff370000002000ef
:100e800001f8270088807000f4ff3700880178009f
:100e90004848dd00808171004848de00c850dd0010
:100ea00001007000c850de00060478000b017800d5
:100eb0001600070088807000d2ff37000500e000b0
:100ec00005003200170020003a0007009dff3700a0
:100ed00081037000f9ff3a00860078004f06780021
:100ee0004f05be004f04be000000050083037100e3
:100ef000f9ff3200270020002e00070094ff370082
:100f000001f8270086807000f4ff37000100e00040
:100f100026003200610111007810e10023003c003e
:100f20006022b8007010e1000400350080027800f3
:100f3000010078008000eb00700151000200e00029
:100f40000900340070031100062add00822ade0049
:100f50008603dd00878272000200de00860bdd0062
:100f6000070070008208de0084817100f4ff270012
:100f7000048262008481710004002800848262007f
:100f80006102600005f0a600000006000482710006
:100f9000070032000000e800e08048000000060082
:100fa0000002be006000b800efff37006000b8002c
:100fb00000000600889fbe000004eb006138e100dd
:100fc00016003a000100e00008003a00c800de0008
:100fd0004800dd00880020000100e00003003a0026
:100fe000c800de004800dd00680444008184cf00b2
:100ff000e9845400060034008908dd00f083140001
:101000008703de00878070000900dd0009044400ca
:10101000610214004f04be00000006000300e0005f
:1010200008003a00c811de004811dd0088002000e9
:101030000300e00003003a00c811de004811dd00a3
:10104000680444008384cf00e9845400060034001f
:101050008919dd00f08314008713de008781710099
:101060000911dd0009044400e1021400e9ff370022
:101070002700200001f0a70017002000470bde002a
:10108000f60fb200040032000643e8000a00320006
:101090004702b3000000060001037800f607b20023
:1010a0000603700002003a000703b30000000600c8
:1010b0008702b3000000060001037800f607b200c3
:1010c00006037000020032000770a0000000060056
:1010d0000760a000000006000478a30004003200ae
:1010e0000578a300030032000168a30001003a0064
:1010f0000200be000160a00000000600889fbe0044
:101100008a9fbe00841f78007c0007004f00780093
:1011100011003300f0ff2f00838f6c0006003b00ae
:10112000040565000a00a7000800370009f0a600c2
:101130001000200008003700820f5400838f5c00ed
:10114000030039001000200001003e0000002000d4
:1011500009f0a7000000ea004f05be004f04be00e2
:101160000000e00000000600881f780003047800fb
:101170000300e00007003d0060001000e080180060
:1011800060011900e081190002003b0001f02d0010
:10119000030037000400070008f0a70001f0a000da
:1011a0004f04780000000600889fbe008a9fbe00a2
:1011b0000082700004027100048271002600320077
:1011c0000004be000200be006011b8006b092000e0
:1011d000950220000182cf000a0039000541b100cc
:1011e0000082cf00070039000541b1000982cf001d
:1011f000040039000541b1000882cf000100390028
:101200000541b10005425200120032000a003b00c5
:1012100082817100610164008100d1000080d300ef
:101220008984d3000884d3008b05e8000442e800d9
:10123000f7ff3a00070037000804440089844c0097
:1012400000004800818048008b05e9000442e90065
:10125000f9ff3a00030007004f05be004f04be002f
:101260000000060081002000618055000b003d0059
:101270000b00200061fe2f000100e1001d00340082
:1012800082817100610164008904d1000884d30067
:101290000000e800faff3a007100200061006400dd
:1012a0000300700002006000090032006104440085
:1012b000e0844c000988a500050032008b05e80099
:1012c0006808e10002003a008904d1000884d300d4
:1012d000f20f20000258e10005003d00c75ddd006f
:1012e000f907b20089807500080078000000060048
:1012f0000bf827008b007800000005000004be00fa
:1013000079fd07000003be000405be000200be0018
:1013100075fd0700844f750000000600889fbe0021
:101320008a9fbe008c9fbe000004be000400200007
:1013300005f827008583600004037800840f5300bc
:10134000858f5b0007003a000801be000800be0060
:1013500068fe07000001be000800be0080fd070017
:1013600010003700e00f5000e08f58000f003c00e5
:101370008101780003f0a10000017800e00f510026
:10138000e08f59006a00320010022000d058880017
:101390000801be000800be0068fd07000001be0095
:1013a000f00607000004be0061003700478cde0035
:1013b000cf8cde00e00f5400e08f5c000f003a009d
:1013c0006044b800040037000000400081804800fd
:1013d00061044400e0844c00040020000508200063
:1013e0008181620004017800e00f5100e08f590014
:1013f000f5ff320061041400e0841c00f807b1001e
:101400000980b10081017800f307b2000001780083
:101410000200be000170a0000808a3000200320014
:1014200000004000818048008984d1000884d300f6
:10143000000040008180480094012000020020004c
:10144000031020006055b8006066b8000c0341002e
:101450008d834900800f5300818f5b0006003c00a4
:101460000606410087864900060050008780580024
:101470000a0541008b85490000004000818048003a
:101480008301d1000281d3000402e900efff3a009a
:10149000e00f5000e08f58001b00320002262400ad
:1014a00023da20000000200001f8230023fd0700bc
:1014b0000200200003f82300e9fc07000000e00020
:1014c000110035000226240023da2000000020004d
:1014d00001f8230022fd07000200200003f823008a
:1014e000dffc07000000e000030034006205450057
:1014f000e0854d00040037006000b8006100650021
:101500000005450081854d00c744dd00080020002e
:101510000000200001f023000804400089844800f6
:101520008b85d1000a85d3000804450089844d00cd
:101530000800be004f06be004f05be004f04be00af
:10154000000006000000fa0068815700cfb897003d
:101550004054800010007800470207000080fa0025
:10156000000006006b000700c3000700f70007003b
:10157000730107009b010700c20207006d023700dc
:101580000000fa0068815700cfb8970040548000ef
:1015900010007800380207000080fa000000060002
:1015a000ea0037000000fa0068815700cfb89700c2
:1015b0003f0207000080fa00000006005500070007
:1015c000ad000700e10007005d010700850107008d
:1015d000ac020700570237000000fa00688157008c
:1015e000cfb89700320207000080fa000000060022
:1015f00048000700a000070051010700790107001b
:10160000d20007009f0207004a02370080017800dd
:1016100002003700b15978000201e9000200e00041
:10162000fcff3a000000060000000600e0a82000d1
:1016300000000600fdff0700605488005054880039
:1016400000000600889fbe000004be00080078006d
:101650001800070000004400890078000e00070011
:10166000080078004f04be000000060081017800e9
:101670000002780030417800b14f510002003a007a
:101680000204e000f9ff3a009480fb001380fb00a5
:101690000080500000000600881f780000047800d9
:1016a0000800780086050700080078004f047800dd
:1016b0000000060080007800040037003104e000dc
:1016c00002003a000000510000000600010178000d
:1016d0000108a300f9ff3a00810178003101780088
:1016e000f4ef2f00020242000281ea0002016200d0
:1016f0000408280004016100f7ff3200830078002d
:10170000010178003104e000fdff3a0000005100c3
:1017100000000600ec874700889fbe008a9fbe003d
:101720008c9fbe008e1f78000006780001047800b0
:10173000180790002805900098067800cdb79f0004
:10174000b80590003202be002203be000400be00b5
:101750000601be004f18de006011b8008000eb00eb
:10176000d0b79f00e1b79f00f2b79f0083bf9f00f3
:10177000800478000900e000060032006000b80034
:101780006011b80004025000858258000603590019
:10179000878359000e00e000020035000d10a10003
:1017a000cdb79f000900e00005003a004fb0970058
:1017b0000028a30002003a000038a3000200320013
:1017c0008a00e900010037008a007800f88157009c
:1017d000a200200008007800860007000900e00051
:1017e00003003a00cfb097000128a30008003200a0
:1017f0000000e90000814500b1c2b3000900e0002b
:1018000001003200d1c2b300014978000500370061
:101810000138a300030032000000e90001c2b30058
:1018200081757800480190000201e9000001510033
:10183000808045004fb297008a0178000c00780044
:101840005b0207009c0090000188a30004003200a6
:1018500098009000810f500001003d0001007800c9
:101860004f0778004f06be004f05be004f04be0074
:10187000cf00b100000006000200fa00889fbe0001
:101880008a9fbe008005780001047800020078007d
:10189000180190002805900098007800b1bf9f00c3
:1018a000b80490000200e000020035000110a10021
:1018b000b1bf9f00ea815700820020008a007800b3
:1018c0003002be002003be00080078004900070077
:1018d0003fb99700f0006100030032000000e9000a
:1018e00001c3b300817478003fb99700e80061003c
:1018f000030032000000e90001c2b30081747800e7
:10190000480190000201e90000015100808044007c
:101910003fba97008a0178000b0078002402070084
:101920009b0090000188a300040032009800900002
:10193000810f500001003d00010078004f05be00fe
:101940004f04be000080fa0000000600ea8747004e
:10195000889fbe008a9fbe008e1f7800000478001a
:10196000030078007287570084e2260055c72600de
:10197000049fbe00c3962200030f78006c875700b7
:10198000004feb0011059000a10490009105780034
:101990000200e00002003200020778000100370078
:1019a000728757000000e00002003a000e00780045
:1019b00040ff07000a00e000030035008a0f5000d6
:1019c000010036000a0078000b02780089017800d7
:1019d000000178008e00780008007800f40107000c
:1019e0004f0778004f05be004f04be00af00b100a6
:1019f00000000600f4874700889fbe008a9fbe0053
:101a00008c9fbe008e1f78000605be000404be0039
:101a100081bf9f0082b79f00f3b79f00b000900086
:101a2000e1b79f001301780092b79f0090069000e5
:101a3000400090000000e900000678000d00e00082
:101a400001003d001d0020008040eb00efb1970039
:101a5000817178001e0020001f0037000c06e9008d
:101a60000fb09700cf80de006109b900a0b79f00da
:101a7000b1b79f00c2b79f00d3b79f000203be005b
:101a80000002be000800be000a01be003a070700bf
:101a9000000778000e4078000043b000efb09700d8
:101aa00080707e008d06e9000fb997000201e90001
:101ab00082bf9f002fb29700bfb297004fb397002d
:101ac000dfb397000800be000a01be00230707002d
:101ad0000205be000004be000c00e0000d00340052
:101ae000e00f5400e08f5c00e00f5d00e08f5d00d0
:101af000daff3a000d00e000d8ff3c008fb99700f4
:101b00000300e000030034001fb097000018a3009a
:101b1000d2ff3a000e00e00002003a00ffb097004a
:101b20001140a1000c0078004f0778004f06be005e
:101b30004f05be004f04be004f01b100000006007b
:101b40000200fa00889fbe008a9fbe000005780050
:101b5000010478000200780018019000a8049000a9
:101b600098007800b1bf9f00b80590000200e00027
:101b7000020035000110a100b1bf9f00ea815700ab
:101b8000a2002000890078003002be002003be00c1
:101b90000800780097ff0700480190000201e90063
:101ba00000015100808045003fba9700890178000c
:101bb0000a0078007e0107009a0090000188a300c7
:101bc0000400320098009000810f500001003d0099
:101bd000010078004f05be004f04be000080fa00ef
:101be00000000600fa874700889fbe008a9fbe005b
:101bf0008c9fbe008e1f780080047800010478005e
:101c000082057800180190002805900018077800d8
:101c1000b80090000200e000020035000e10a100a4
:101c2000010037001200200070006700e0b79f003d
:101c3000090032003b02be002b03be00e00f520041
:101c4000e08f5a00e00f5b00e08f5b000200320083
:101c50008a86e900010037008a067800e8026700fa
:101c6000f5b79f00010032008d06e9003b02be007f
:101c70002b03be00e4af9f00f5af9f0086b79f0027
:101c800097b79f00480690000c06e9000040eb0063
:101c900080707e00efb297007fb2970089037800d2
:101ca00081047800d8af9f00020478008bbf9f00aa
:101cb0008a057800034578002a0037000c06e90001
:101cc0006fab97006f006300e90f500002003c000b
:101cd0000003b000010037007005b0000a03fb00ec
:101ce0001604b100f90f53000c003e000003780009
:101cf0000650a0001606b100f90f530007003e0081
:101d0000b4b79f00a5b79f00c7b79f001d04070089
:101d1000cfb39700afb297003fb2970080747e00b8
:101d20000804e9008d06e9006fa89700ffa8970056
:101d30000fb197009fb19700460020008301d100aa
:101d40000281d3008180d3000080d3000603e90024
:101d5000faff3a00e0af9f00f1af9f0082b79f000b
:101d600093b79f00e10f56000f0034006fa8970053
:101d7000ffa897000fb197009fb19700e00f5000a8
:101d8000e08f5800e00f5900e08f5900cbff3a0078
:101d90000800e000c9ff3c000d00e0000200340034
:101da0000e18a300c5ff3a0089007800f4b79f0021
:101db000870478005fac97008a4178000b057800b3
:101dc0008fbd97000500e000100032003b02be000e
:101dd0002b03be00e4af9f00f5af9f0086b79f00c6
:101de00097b79f00e00f5200e08f5a00e00f5b00b2
:101df000e08f5b00050032000c06e90083707e0076
:101e00000c06e90000c3b30080707e00ffb29700ab
:101e10000500e000030032000c06e90000c2b30038
:101e200080707e00480190000201e9000c01510021
:101e30008c8040000e0278008a017800090078004a
:101e4000db000700990090000188a3000400320025
:101e500098009000810f500001003d0001007800c3
:101e60004f0778004f06be004f05be004f04be006e
:101e7000af01b100000006000200fa00881f7800e0
:101e800000047800e2bf9f006481570008007800da
:101e900086020700980090000148a300010032006c
:101ea0000080eb004f0478000080fa00000006007c
:101eb0008201780001017800f1ff2700bc033700a0
:101ec000889fbe00000478004800900082047800db
:101ed000808f5400010036008004780009017800ea
:101ee00058009000c9fd070058009000090040000c
:101ef00050049800c800900089845000490498005c
:101f00000048eb004f04be000000060010007800ff
:101f10000efa3700900190000388a3000100320000
:101f2000e7ff37000348a30001003a00f7ff07006e
:101f30000000060084082000848f50001d0032003d
:101f40000d003c0014082000848f50002700320050
:101f500002003c0004082000040037002408200090
:101f6000848f50003400320044082000848f5000d9
:101f700043003a0036003700040a2000848f5000e6
:101f80002700320004003c0004092000848f500028
:101f90003b003a0028003700020c2000828f5000de
:101fa0002f003200020f2000828f500034003a00d0
:101fb0002b0037009380e9000200e00005003200aa
:101fc000810978001102fb00cfa2de00612bb9006d
:101fd0002800370081097800114278000482fb0054
:101fe0008002eb006033b800220037001302780053
:101ff000e40052000200e000050032008109780090
:102000001102be004fabde008603780019003700d6
:10201000810978001102be006033b8001500370056
:102020009380e9008109780011027800cfa2de00d8
:10203000612bb9000f00370093027800e88052004e
:10204000810978003102be002103be00090037007b
:102050009380e9000200e00002003200f1ff370047
:102060009380e90081097800110278008002eb007a
:102070006033b8000498be000690be001000050052
:102080000000050044082000848f50002500320025
:1020900008003c0014082000848f50001400320017
:1020a00024082000848f50002400320004082000ff
:1020b0000c00370004092000848f50001f003200fc
:1020c00004003c0084082000848f500024003a0063
:1020d0000e003700040a2000848f500011003200e7
:1020e000040c2000848f50001d003a000d003700c2
:1020f0009380e90081097800910078000108780058
:10210000cf91de008288be00140037009380e90082
:1021100081097800910078000108780082487800f1
:102120000e0037009380e900810978009100780063
:102130000108780082087800080037009380e900e1
:102140008109780091007800010878006112b900d7
:10215000612bb9008498be008690be001000050077
:1021600000000500889fbe00000478004800900031
:1021700082047800808f54000100360080047800cb
:10218000090178005800900020fd070058009000d9
:102190000900400050049800c80090008984500055
:1021a000490498000048eb004f04be000000060000
:1021b000f2874700889fbe008a9fbe008c9fbe00aa
:1021c0008e1f7800800478000105780002047800f2
:1021d000830578006107620002003a008b0f54000b
:1021e00008003900080178008a00780009007800aa
:1021f00048ff07008b0f5400020039008805780063
:102200001e003700088655000c017800f00f5600bc
:102210000100360002012000010220007e805700ec
:10222000430207008c0678000500370002012000f9
:10223000fe8057000900780036ff0700f086560040
:10224000ef8f5600f9ff3e004461de0000ff2f00d3
:102250000091b90002014600fe8057000900780095
:102260002cff07000e00e00004003a00080178008f
:102270008a0078000900780026ff07000b0078002c
:102280004f0778004f06be004f05be004f04be004a
:102290002f01b1000000060000000500000005004d
:1022a00000000500000178000040eb008080fb008a
:1022b0008180400023af200063c278000404e00066
:1022c00003003a0030af200060c078000000060034
:1022d00092017800934f520004003a0030af200082
:1022e00060c078000309e800010037000040e80002
:1022f000ea4f5000edff360000000600f687470069
:10230000889fbe008a9fbe008c9fbe008e1f7800f3
:102310000005780001047800830578000406780041
:102320000000eb00c0b79f008080eb00d1b79f009a
:10233000e0b79f00f2b79f000008200080bf9f0019
:1023400098007800010078008004eb00010037005d
:102350008904e800304178000204e0000300320004
:1023600053c2b300834f5100f9ff3a000900e00067
:1023700004003200090178000a007800e5fe070039
:10238000188c44001807780050c2b3009e4f10000c
:102390003f013a000e07e8000e0c780010003700ed
:1023a000cfb097000100a0000b003700cfb097001e
:1023b0000110a00008003700cfb097000120a00056
:1023c00005003700cfb097000130a00002003700b1
:1023d000cfb097000140a000c1b79f00000ce800fb
:1023e0001800780090407800b2c2b30082cf50004d
:1023f000f1ff320007003c0002c2b30082cf500060
:10240000f0ff320032c2b30082cf500007003a0022
:10241000efff3700d2c2b30082cf5000e0ff32009e
:1024200002c3b30082cf5000e0ff3200a2c2b3006b
:1024300082cf50000d003a00000ce8001c80e9003b
:10244000000e780010007800e0b79f000000e00068
:102450000f003d00cfb097000100a200c1b79f0060
:102460000000ea00e0b79f00090037008401070080
:10247000e0b79f0001003700000ce800180078006a
:102480009000fb000103b100e98f5000faff360015
:102490004fb097000008a300020032000010a10016
:1024a000c0b79f0018007800e1c2b30090cf1000c1
:1024b00016003a008000eb00d1b79f000000e80052
:1024c000000c7800a1c2b30090cf100006003a00c3
:1024d000000ce8001c80e900000e78001000780075
:1024e000d0b79f000900370065010700d0b79f00f3
:1024f00001003700000ce800180078009000fb0095
:102500000103b100e98f5000faff3600080078009f
:1025100064ff070080467800180078001000fb0078
:102520001102070091062000810f50003800320090
:1025300012003c0041062000810f500034003200a0
:102540000a003c0011062000810f500020003200dc
:1025500031062000810f5000a000320051022000ff
:10256000810f5000bc003a00b40037007106200013
:10257000810f5000b8003c008800370001072000a0
:10258000810f50005c00320007003c00e106200093
:10259000810f50007a003200f1062000810f5000b8
:1025a000ad003a003900370051072000810f50007c
:1025b0002700320081072000810f500042003200c6
:1025c00031072000810f5000a3003a008f00370030
:1025d0008d80fb000c01780000fe2f000f004000f2
:1025e000180207000000e000a80032001800780080
:1025f000000ce8009041780002fe2f000f0141001e
:10260000f88057000a00780024ff07000e0037000a
:102610008d80fb008c0178001200200000fe2f004e
:102620000f00400043fe07000000e000970032006a
:10263000180ce80002fe2f000f014100f88057003f
:102640000a00780033fc07008084440090003700c3
:102650008d80fb008c0178000001eb0000fe2f0054
:102660000f00400033fe07000000e000870032004a
:10267000180ce80002fe2f000f014100f8805700ff
:102680000a0078002efd0700efff37008d80fb0069
:102690008c0178000001eb0000fe2f000f004000cd
:1026a00024fe07000000e00078003200180ce8006b
:1026b00002fe2f000f014100f88057000a00780049
:1026c0006dfc0700e0ff37008d80fb008c01780077
:1026d0000001eb0000fe2f000f00400015fe070078
:1026e0000000e0006900320018007800000ce800eb
:1026f000904178001c0037008c0178000001eb004d
:10270000010f200000fe2f000f00400009fe07000f
:102710000000e0005d003200180ce8000fb09700e8
:102720009fb097002fb19700bfb19700e00f500006
:10273000e08f5800e00f5900e08f590009003a007f
:10274000cfb597006fb49700a0ae2000d9fb07006b
:102750000b0278008801780000017800a1ae20000b
:102760004700370083c7b30002fe2f000f0141006e
:10277000f88057000a0078001afd0700b2ff370002
:102780000b8144008d80fb008c01780000fe2f003f
:102790000f0040003bfe07003c0037008d80fb002f
:1027a0000c01780000fe2f000f004000a50107007b
:1027b0000000e0003500320018007800000ce8004e
:1027c0009041780002fe2f000f014100f880570071
:1027d0000a007800b1fe07009bff370000c8b30075
:1027e00080cf560029003a00180ce8001c80e90050
:1027f000000e780010407800e0df9f0013002000fa
:10280000e2fd2f000f0141000800370000c8b300af
:1028100080cf56001d003a00180ce8001c80e9002b
:10282000000e78008001eb0010017800f88057005e
:102830000a00780045fc070083ff370000c8b3009a
:1028400080cf560011003a00180ce8004fb29700f4
:10285000efb19700080037000e0c78000000eb0085
:10286000c0b79f00e0b79f000080eb00d0b79f008b
:102870000002eb00840178001200200001af20006c
:102880000a0078004afe07006fff3700180ce800c6
:10289000090078004f0778004f06be004f05be00c4
:1028a0004f04be006f01b100000006008200fa0074
:1028b000889fbe008a1f7800000578008204780097
:1028c000c13f9f000004eb001000370009027800b0
:1028d00088017800a2f72f000f01410081f72f0037
:1028e0008f8040000a00780084fe07000800400046
:1028f000880f500004003d00b0042000d05888002c
:102900000084eb0004003700000478004f38970083
:102910001004e000edff3a00080078004f05780051
:102920004f04be000080fa0000000600889fbe0031
:102930000004be000000eb000800e00018003200b8
:10294000180090000058a3000d003200d80090003d
:1029500068009000808f500009003600b809900090
:102960000001eb00820078000800780003000100fd
:10297000d80090000080eb000100e0000800320069
:102980000000eb00200c98006004980050049800b0
:102990000900e000020032001800780062f707002a
:1029a0004f04be0000000600889fbe000004be0069
:1029b0000000eb000800e000250032001800900045
:1029c0000058a30011003200d80090006800900069
:1029d000808f500009003600b80990000001eb001c
:1029e000820078000800780003000100d800900001
:1029f0000080eb000100e000150032000000eb0059
:102a0000200c98006004980050049800780a900008
:102a100008109000800f52000600310000025200a2
:102a200011002000cfa2de00612bb9001800780051
:102a3000390007000000eb0000149800700c9800ab
:102a40000900e000020032001800780036f70700a5
:102a50004f04be0000000600800078001000200037
:102a600002022000828f500004003200e9805000f2
:102a7000e48f5000010036000000eb00000006006b
:102a8000889fbe008a1f7800000578000a0478003d
:102a9000984478000805e8000900fb00eeff0700f5
:102aa0000000e000f9ff3a00b0c2b30080cf54004c
:102ab00005003200d0c2b3008000eb0080cf54008c
:102ac00005003a00020037008000eb0001003700eb
:102ad000110020000804e8000000eb0003003700ac
:102ae0006a02b900020052000003b0003801fb0086
:102af00003fd2f0082814100e98f5100f8ff36006d
:102b00000100e00001003a000000ea004f057800f3
:102b10004f04be0000000600a0fd2f00f1ff2f00b3
:102b2000870007004f89de00820178000000060060
:102b3000889fbe008a9fbe00800478000200e000eb
:102b40005b00320001407800814c780082814400b3
:102b5000f1f99f00e20f51005500360091449800b2
:102b6000a1449800e1f99f00d1f99f00e60f5100c0
:102b70004f003600b1449800c1f99f00e80f5100a2
:102b80004b0036000905ea00630565000a8444002d
:102b90000a055100c1ff2f00010565000080fb0000
:102ba0008000eb001210200013102000e700070047
:102bb000008cbe000a01440060b99f0071b99f00fb
:102bc000e80f55003a0036002004980031049800c0
:102bd000400498005104980020b99f0031b99f002b
:102be00040b99f0051b99f00f80f550030003600e2
:102bf0006004980071049800000c9800110c980073
:102c0000200c9800310c9800400c9800510c980052
:102c100020b19f0031b19f0040b19f0051b19f0092
:102c200060b19f0071b19f0000b99f0011b99f0072
:102c3000640164007801410002044400020555006b
:102c40006011b8000203be000002be000403be0013
:102c50006022b800000072008180720002017300df
:102c60008381730010003700009cbe000294be00f8
:102c7000400498005104980062049800730498007e
:102c8000000c9800110c9800220c9800330c98004e
:102c9000400c9800510c9800620c9800730c98003e
:102ca0000a02b1000802b000ff0f5500eeff3e001f
:102cb000090078004f05be004f04be00000006006a
:102cc0000101780080017800008268000408a300f8
:102cd0000500320013003700324078008059780038
:102ce0000004e00014003200030278000208a30090
:102cf000f9ff3a000300780001003700031878005c
:102d000082007800b2017800f5ef2f008382420044
:102d10000382ea00048262000508280005026200be
:102d2000f6ff320000027800314178000258780046
:102d30000204e000fbff3a000400780000000600f7
:102d400002002f00f3ff2f00820f5000838f5800e6
:102d5000040036000000ea00d05888000080eb0034
:102d60008080eb0000000600f1fb2f008080400017
:102d7000f98f500001003e000050a0000000060046
:102d8000f9ff3700f1f92f0080804000f98f5000e3
:102d900001003e00f005b20000000600f9ff370018
:102da0000000060023fa0700fdff0700fcff3700c4
:102db000f28747008e1f7800020278000301780036
:102dc0000000e00002003200000778000100370038
:102dd000728757008002eb000100e0000100320022
:102de0008102e90070805700060009000018eb001e
:102df0000080eb0080bf9f002310200093bf9f0046
:102e0000aebf9f00b1bf9f00c5bf9f000100e000a3
:102e100003003d00b1042000d158880006003700af
:102e2000004feb00eebf9f00debf9f0084007800e4
:102e30007080570010fc07004f0778002f01b10089
:102e400000000600881f78000004780000082000b9
:102e5000808f50001700350010082000808f500030
:102e60000b00340030082000808f500011003a0021
:102e70009200780068805000000978003002be009f
:102e80002003be00049cbe000694be00070037006d
:102e90009202780064805200000978001000be00a1
:102ea0000b000700009cbe000294be001000200032
:102eb000010037000000eb004f047800000006001e
:102ec00000c0da000000060000c0da0000000600c2
:102ed0008103780084f607000001be006000b8009e
:102ee0000478a30013003a006220e10015003e00c0
:102ef0000d0039008301d1000281d3008180d3000d
:102f00008301d1000281d3008180d3008301d100ed
:102f10000281d3008180d3000538b000c42add00cf
:102f2000f300b2008381720007f0a70003f0a00055
:102f30000000060083ff2700020020006110b90096
:102f4000f9ff370003ff2700f7ff3700020ab90037
:102f5000001bb9000200b80081004200810043005c
:102f600000000600889fbe008a9fbe008c9fbe00a6
:102f70001b0020000202be00058668000600280033
:102f8000060666004709de00f20fb200820032003a
:102f90000243e80080003200c729de00f30fb200d0
:102fa0007d0032000343e8007b003200f107b200ed
:102fb0000170a000f507b2000570a000c708dd0091
:102fc0004903de00868070004700dd00c72add006f
:102fd0004923de00868272004722dd00030551008e
:102fe00004035000858358000300310000004000b6
:102ff000818048000a05e9008c1f78008a9fbe0086
:1030000004005000858058000402420085824a0076
:1030100000004000818048000005eb000004be0075
:103020006033b8000406be000d48e10056003100d0
:10303000110009004dccd8000c01b8000d02b800f9
:103040008481410060824a008283530003045c0053
:1030500084845c0060055d000a00e00025003a0001
:10306000800578000d40e1004900310088007800bb
:1030700007007800110009004d88d8000c01b80045
:103080000d02b8008481410060824a006003110093
:1030900083835b0004045c00e0845c000900e000c2
:1030a00021003a004f01be000300e0002b00320077
:1030b000e3016000070673008c817100010032009b
:1030c000640070004200de004e5edd000c00700007
:1030d000c258de0001e0a00081000700cf017800a7
:1030e000818071004f06be004f05be004f04be0038
:1030f000000006008c8343000d044c00e0844c006b
:1031000060054d000000e9000a00e000d4ff320035
:103110008c8343000d044c00e0844c0060054d009e
:103120000000e900ceff37000c0343008d834b0005
:1031300060044c00e0844c000000e9000900e0005d
:10314000d8ff32000c0343008d834b0060044c0019
:10315000e0844c000000e900d2ff37004200de00ae
:103160004e5edd000c007000c258de0001e0a000e1
:10317000cf0178000300e000daff320060001000a9
:10318000e0801800d7ff3700f0ff2f00aaff3700bc
:10319000f0ff2f00b9ff37000404be00b4f70700aa
:1031a000870678000004fd008104fd00b0f70700e9
:1031b000078366000678a300030032000960a700b9
:1031c0000800be002c0037000d78a300020032007a
:1031d0000800be00280037000778a30026003a0048
:1031e00001f0a10009f0a1000668a300030032006d
:1031f000f1ff2700f0ff2f00baff37000d68a30092
:10320000030032000800be008c807000b5ff37005c
:103210000768a30007003a000648a3000300320035
:10322000f1ff2700f0ff2f00aeff37000d48a3008d
:10323000030032006000b8008c807000a9ff3700e6
:103240000748a3000400320001f827000000200016
:103250008c807000a3ff3700740007000004fd009d
:103260008104fd0002057800700007000802be001e
:103270008a01780059ff37000160a0001202200087
:10328000a241880097ff37000100e00012003200e1
:103290000500e00010003200889fbe008a9fbe003b
:1032a0008c9fbe000006eb0001f8a3000300320073
:1032b00060001000e08018000cf0a00005f8a300ea
:1032c0000300320060021200e0821a000cf0a2003b
:1032d0008005eb0041ff37006000b80002000500e8
:1032e00081017000270032008002eb0001f8a3008a
:1032f0000300320060001000e0801800150020007c
:10330000f40720000202420020003400f7032000ee
:103310008703600006042000000363000208200009
:10332000000161004700de00c909dd000080710076
:10333000c708de000600e0000800320087037100c5
:10334000060032001000b0000180b0000188a30028
:1033500002003200c108de000402e800f107b200fa
:10336000f30f20000320e10003003d004722dd00b1
:10337000810072002900370001f827000000eb00ef
:10338000260037006000b800000006006802120046
:103390007f20e100020034006000b8001f00370009
:1033a0006011b8007020e100040035008001780051
:1033b000010078008000eb00700252000400e00081
:1033c00009003400f00312000719dd008419de0043
:1033d0000703dd00868171000400de00070bdd00bd
:1033e000060070008408de00f7ff27008383630077
:1033f0008703710006002800030363000700320002
:103400000700e00003003a006101600002817300e0
:10341000020032001000b0000180b0000500a600dc
:103420000000060001f0a000000006004f0ade00c8
:103430004709de00f107b200f20fb2000b003200c4
:10344000f207b1000170a000c708dd00c901de006d
:10345000838070004700dd000400a6000000060025
:1034600060001000e080180000000600810f70006e
:1034700001003a00000006008182cf000500e00054
:1034800010003e008082cf00ee8242007028e100f2
:103490000400390007003e00800078000000eb00c7
:1034a0000e003700708312008600de000500dd008c
:1034b0000a003700708352008600dd000000eb0038
:1034c00006003700e28252008508dd00708312009a
:1034d0000603de00868070000500dd007507b00081
:1034e0000501ea000400a6000000060060001000cc
:1034f000e080180000000600889fbe008a9fbe0082
:1035000030044200b0844a0030054b0090854b00e7
:103510006000b1000898be000a90be000440e100bf
:1035200005c8e10006d0e10007d8e1000200310043
:10353000680040001008e8004f05be004f04be00c0
:1035400000000600889fbe008a9fbe003004be00b7
:103550002005be000418540005985c0006185d00a4
:1035600007985d00110020000440e10005c8e1005b
:1035700006d0e10007d8e100010039008000eb002f
:10358000108810004f05be004f04be00000006006a
:103590001200fa00889fbe008a9fbe008c9fbe006a
:1035a000e0b79f00f1b79f0082bf9f0093bf9f00cd
:1035b0000605be000404be000000eb00d0b79f006b
:1035c000c0b79f00b0b79f00a0b79f0090b79f0003
:1035d000000678005fb19700cfb0970082014100ec
:1035e0003fb097000200e00004003d0037000700f4
:1035f0007e805700c0ff070003003700330007003c
:103600007e805700cfff0700dfb697000d00e00077
:103610000c0035006fb29700ffb297000fbb970008
:103620009fbb970010002000010020006011b8002f
:1036300000027200818272000203730083837300b0
:103640001b0007000c06e80001042000810f560053
:10365000e0ff3a000d00e00004003d000802be005b
:103660000a03be007e805700a3ff07005fa89700f3
:103670000000e00005003a001fb29700afb29700cb
:103680003fb39700cfb39700090007006fb09700d2
:10369000ffb097000fb997009fb997004f06be0083
:1036a0004f05be004f04be000080fa000000060077
:1036b0000100070000000600a4b79f00b5b79f00f7
:1036c000c6b79f00d7b79f00000006004f09de0075
:1036d00082817100b3b79f004f01de0081804000fe
:1036e00082807000a1b79f008fb097004f09de0065
:1036f000000040000200700090b79f007fa8970074
:103700004f01de00818040008280700081b79f0001
:103710000d0007004f3ade0000004000040070007a
:10372000f0af9f00080007000402420085824a00b3
:1037300006034b0087834b00dfff07000802be0033
:103740000a03be00000006002fb29700bfb2970028
:103750004fb39700dfb3970000000600881f780082
:1037600018002000881f780089ff07008f87e90074
:103770004f04780000000600801feb0084ff070064
:103780008f87e90000000600889fbe008a9fbe0068
:10379000e00f5000e08f5800e00f5900e08f590013
:1037a0000c003d006044b8006055b80000005400b3
:1037b00081805c0002015d0083815d0018002000b3
:1037c0001500070008003d00180007000004eb008a
:1037d000050037000004eb000f00070002003d0069
:1037e0001200070018002000dcff07000800e000be
:1037f000060032006022b8006033b80000005200ba
:1038000081805a0002015b0083815b004f05be008e
:103810004f04be0000000600e00f5200e08f5a0087
:10382000e00f5b00e08f5b00000006006044b80022
:103830006055b8000402540085825c0006035d00f8
:1038400087835d0000000600889fbe008a9fbe003f
:103850008c1f7800e00f5000e08f5800e00f5900f7
:10386000e08f59000d003d006044b8006055b8007d
:103870000000540081805c0002015d0083815d00d6
:103880001c0020000820e10009a8e1000ab0e100c6
:103890000bb8e1000d003d00080037000006eb000a
:1038a000e00f5200e08f5a00e00f5b00e08f5b00fa
:1038b00006003d006044b8006055b80004025400a2
:1038c00085825c0006035d0087835d00aaff070018
:1038d0000c00e000060032006022b8006033b8003f
:1038e0000000520081805a0002015b0083815b006e
:1038f0004f0678004f05be004f04be0000000600d2
:020000040000fa
:10390000dff700005aff0000ff070000fa7f000009
:10391000fff70000bbf7000038ff000000000000c8
:1039200059ff00001f0000005c89000045a1000055
:10393000d0dd0000f45c0000e07f000043d3000015
:10394000eafb0000bd640000dbff0000a7d8000018
:10395000ff070000110000005104000021bc00001e
:1039600055ad00002003000055ad0000adbd0000c6
:10397000118800004553000060fc00009999000088
:1039800000880000afec0000f18d0000f14900005c
:10399000692a0000692a00007a0600001a900000d7
:1039a000b2f80000ff0500004d6b00004d6b0000f9
:1039b0009f1c000004b10000deff00004424000052
:1039c0001ff80000fbde0000dfff0000a0fe00008b
:1039d00024dd00001084000000040000e5af0000ba
:1039e00010840000fef7000056fb0000ebca000048
:1039f00010480000feff000031f700003fe7000024
:103a00009eff0000e07f0000d9ff0000dcae000058
:103a100010f40000ffe70000daff00009ad6000073
:103a2000729700009ad60000b8fd00000ffd00005c
:103a3000952500007f860000537400005374000039
:103a40003bb60000fcff0000e00700006636000007
:103a50009cff00001ff80000008000007566000059
:103a600019000000baba00009b9300008e3d0000d0
:103a70005d7b0000d3070000994e0000b0c000003d
:103a8000ce180000fff700003cff000036ff0000ea
:103a9000f5fe000010000000bcff000000840000e4
:103aa000646c000020fd000020fa00009adb00009a
:103ab00055ef0000d39f00007daf000092db0000b7
:103ac0007aff0000d7fe000027cc000019fe00009e
:103ad0001bdd00001cb700001080000000f8000093
:103ae00071bc00005c430000228a00000efc000054
:103af0002cf500004a2c0000bdff000085a200004c
:103b000018c600007d860000d96a0000127400000b
:103b100012740000dfff0000ef07000016440000f1
:103b2000b1d5000010040000fbdd000008fb000020
:103b30001a4700001dec0000f6f60000ffff000031
:103b4000bef70000e0ff0000669e000000000000dd
:103b5000804400001f1c00001f1e00001f1e0000ec
:103b60001f1f00001e1f00001e1f00000078000025
:103b700000f8000000fc000000fc000000fc000059
:103b80001e7c00003e7800007f0400009f3f000084
:103b90003e1f00003e0c00003e000000040000003c
:103ba000f0000000f0010000e00000001e00000036
:103bb0003f0000003f0000007f0000003f000000c9
:103bc0003e3800001e7c0000107e00007c7e00005d
:103bd000787e0000307c0000003c000000200000e7
:103be000001e0000001f0000000e000045720000d3
:103bf000726f0000723a000020250000730a000076
:103c000000490000324300002052000065610000be
:103c10006420000045720000726f000072200000f6
:103c2000284c0000534200002900000049320000e7
:103c30004320000052650000616400002045000040
:103c4000727200006f720000202800004d530000c7
:103c500042290000004900003243000020450000d6
:103c6000727200006f720000206f0000722000006e
:103c7000577200006f6e000067200000446500006e
:103c800076690000636500002049000044000000e0
:103c900041630000636500006c200000506f00006d
:103ca000776500007220000045720000726f00000e
:103cb0007200000041630000636500006c2000009a
:103cc0004461000074610000204600006f72000033
:103cd0006d6100007420000045720000726f0000ea
:103ce0007200000053740000657000002064000042
:103cf00065740000656300007465000064210000c5
:103d0000204300006f7500006e7400003d25000028
:103d1000750a0000002500007500000025730000f2
:103d20003a0000003a000000504d00000041000041
:103d30004d000000257300002f00000043680000c4
:103d40006f6f000073650000204600006f72000076
:103d50006d610000743a000000310000324800003c
:103d60000032000034480000005300006574000079
:103d700020540000696d000065000000253000003f
:103d80003264000000500000656400006f6d0000a8
:103d90006574000065720000204700007261000039
:103da0007068000000310000324800002f3200002f
:103db00034480000204900006e7400006572000065
:103dc000766100006c000000536500007420000064
:103dd000546900006d650000005300006574000028
:103de0002044000061740000650000004578000078
:103df00069740000003a0000005000004d0000000f
:103e0000414d000000490000324300002045000001
:103e1000727200006f720000206f000072200000bc
:103e2000577200006f6e00006720000044650000bc
:103e3000766900006365000020490000440000002e
:103e40005f5f0000050800000000000000000000a7
:103e50000000000000fa00000000000000e0000088
:103e600000e0000000280000fe280000fe280000fe
:103e700024540000fe54000048c40000c810000094
:103e8000264600006c9200006a0400000a00000050
:103e900010e00000c0000000003800004482000074
:103ea0000000000082440000380000005438000088
:103eb000fe38000054100000107c000010100000bc
:103ec000000000000e0c00000010000010100000a8
:103ed00010100000000000000606000000040000b2
:103ee00008100000204000007c8a000092a2000020
:103ef0007c00000042fe0000020000004e92000024
:103f0000929200006284000082920000b2cc000015
:103f10001828000048fe000008e40000a2a20000eb
:103f2000a29c00003c520000929200008c82000093
:103f30008488000090e000006c92000092920000e3
:103f40006c62000092920000947800000000000073
:103f50002800000000000000022c0000000000000b
:103f600000100000284400008228000028280000db
:103f700028280000008200004428000010400000b3
:103f8000809a0000906000007c820000ba9a0000d5
:103f9000723e000048880000483e0000fe9200008b
:103fa000929200006c7c000082820000824400003b
:103fb000fe820000828200007cfe000092920000df
:103fc00092820000fe90000090900000807c000033
:103fd000828200008ace0000fe1000001010000057
:103fe000fe00000082fe00008200000004020000cb
:103ff00082fc000080fe00001028000044820000c7
:10400000fe0200000202000002fe00004038000034
:1040100040fe0000fe20000010080000fe7c0000b2
:1040200082820000827c0000fe90000090900000e0
:10403000607c0000828a0000847a0000fe9000000c
:10404000989400006264000092920000924c00007c
:10405000c0800000fe800000c0fc000002020000e2
:1040600002fc0000f804000002040000f8fc00005c
:10407000021c000002fc0000c628000010280000fe
:10408000c6c00000201e000020c00000869a00006c
:1040900092b20000c2000000fe8200008282000096
:1040a0004020000010080000040000008282000090
:1040b00082fe00002040000080400000200200003e
:1040c000020200000202000000c00000e010000038
:1040d000000400002a2a00001c020000fe14000058
:1040e000222200001c1c00002222000022140000da
:1040f0001c22000022140000fe1c00002a2a0000de
:104100002a180000001000007e90000040300000df
:104110004a4a0000523c0000fe100000202000002f
:104120001e00000022be0000020000000402000089
:1041300002bc000000fe0000081400002200000085
:1041400000820000fe020000003e0000201e000071
:10415000201e00003e100000202000001e1c000059
:1041600022220000221c00003e180000242400002f
:104170001818000024240000183e00003e10000023
:1041800020200000101200002a2a00002a2400002b
:1041900020200000fc220000243c0000020200005d
:1041a000043e00003804000002040000383c000017
:1041b000020c0000023c0000221400000814000061
:1041c000223200000a0a00000a3c000022260000f9
:1041d0002a32000022000000106c00008200000063
:1041e00000000000fe00000000000000826c0000e3
:1041f000100000004080000040200000400000004f
:10420000200100000000000000000000200100006c
:084210000f0000000000000097
:020000040000fa
:104218000200fa00000f780001e684001e00780012
:10422800810278000002780013c0b30012c0b30006
:1042380041c1b3000040eb00480a07009e1f780008
:1042480060df2900801f7800cbf40700e48757005f
:10425800ffff37000a00fa00004f980030002000e6
:10426800200798000000eb00000f780010003700ce
:1042780066004700000178008e489000a0c3b30094
:10428800ec0e07000000e0000e0032002e00900047
:104298000000e9009e0f500002003a0010e02900db
:1042a800dbff0700a00020005d0f07001e0fe800dd
:1042b8002e0090009e007800808f5000ecff3500a3
:1042c80001003700000000000000eb001007980014
:1042d800150037000e4890000040e800e70047004e
:1042e8000101780080407800a0c3b300d10e070018
:1042f8000000e000110032002e0090008000e9006c
:104308001e009000808f500002003a0060e12900f2
:10431800bfff0700a0002000410f07001e0090000b
:104328000000e800100798009e0090002e00900002
:10433800808f5000e7ff35000100370000000000c3
:104348007e4090000080fb00c800dd006e409000b9
:104358000080fb00010070000080fa0000000600e9
:104368000a00fa000040eb00004f98000000eb0044
:10437800000f78001400370068004700000178003b
:104388008040eb00a0c3b300aa0e070030079800d6
:104398003e0090000000e00003003a000e48900044
:1043a800fb4f40000c0032001e007800e20f500066
:1043b80002003a00b0e2290095ff0700a0002000a3
:1043c800170f07001e0fe8001e007800e20f5000cc
:1043d800e9ff340001003700000000000000eb0096
:1043e800100798001200370082c0b300d1c2b30092
:1043f800a0c3b300b30e0700300798003e0090003a
:104408000000e0000e0032001e009000e20f500095
:1044180002003a0080e429007dff0700a000200088
:10442800ff0e07001e0090000000e800100798002b
:104438001e009000e20f5000ebff3400010037002f
:10444800000000000000eb00200798001200370071
:10445800b2c0b30011c3b300a0c3b300990e0700e4
:10446800300798003e0090000000e0000e00320087
:104478002e009000e20f500002003a00a0e529004b
:1044880063ff0700a0002000e50e07002e00900043
:104498000000e800200798002e009000e20f50006e
:1044a800ebff340001003700000000000080fa0034
:1044b800000006001c00fa00889fbe0020c3b3005d
:1044c80064ff0700300f980040c3b30061ff070086
:1044d800400f980060c3b3005eff0700500f9800bc
:1044e8003e089000cf80de00f8f0070002002000b0
:1044f80003082400fdf10700008fbe004e0890005d
:10450800cf80de00f1f0070002002000030824003d
:10451800f6f1070020079800310798005e08900020
:10452800cf80de00e9f00700020020000308240025
:10453800eef1070040079800510798001e01be00e1
:104548001e00be00e9f107000004be002e01900025
:10455800be0190002e009000be009000e3f107001d
:104568000001be000800be00fbf007000004be000a
:104578004e019000de0190004e009000de00900099
:10458800daf107000001be000800be00f2f00700e3
:1045980060f30700600798007107980030ed840009
:1045a80041ed84000001be006e009000fe00900006
:1045b800e0f0070001f0a100000f9800110f98002b
:1045c80018c0b30002002000a33f24000e0890008a
:1045d8009e089000a0f007000000e00001003c00e9
:1045e8000044eb00485798004e519000218020006d
:1045f800824878004e5090000004e0001400320019
:1046080001c8bf000004a2000004e000100032004e
:10461800204080000000e8002040880007c8bf0054
:104628000080fb0061a32000e14078000141e80020
:1046380061a320008270780020408000801f7800ed
:1046480020e72900801f7800bcf30700e4875700a3
:104658004e51900011802000824878004f04be001f
:104668000080fa00000006000e00fa00881f78009b
:104678000000eb00000f78000000eb001007980026
:104688000900370061a320001e0090000080400050
:10469800104078000080fb001e0f40001e009000b4
:1046a8000000e800100798009e009000b00320006a
:1046b800808f5000f3ff34009e0078002107980097
:1046c80062408000734080001041800021418000da
:1046d800800f5100818f59007400320002c8bf005a
:1046e8000004e000560032002e0090008000eb002d
:1046f80079f007000002be00404080005140800071
:1047080018c0b3000001be000400be0052f007004c
:104718000000e00001003c000044eb000804e00059
:104728001c00320040408000514080000200200000
:1047380003f8230088f007004040880051408800b3
:104748002e0090008000eb0063f007000002be001e
:10475800404080005140800018c0b3000001be00f6
:104768000400be003af007000000e0000100350038
:104778000044eb000804e000480032002e009000de
:104788008000eb0054f0070040408800514088004a
:10479800420037002e0090008000eb004ef007002a
:1047a8000002be00404080005140800018c0b300a5
:1047b8000001be000400be0025f007000000e00074
:1047c800010035000044eb000804e000330032002b
:1047d80040408000514080000200200003f8230080
:1047e80054f0070040408800514088002e00900097
:1047f8008000eb0038f007000002be004040800057
:104808005140800018c0b3000001be000400be0083
:1048180011f007000000e00001003c000044eb003c
:104828000804e0001d0032002e0090008000eb001c
:1048380029f00700404088005140880017003700e1
:1048480006c8bf000004e0001400320040408000a9
:10485800514080000200200003f8230035f00700d3
:10486800404088005140880040408000514080000e
:1048780018c0b3006011b800f5ef07000000e000b1
:10488800010035000044eb000804e000030032009a
:104898006000b800404088005140880060408000b7
:1048a800714080001041880021418800404080000c
:1048b800514080000200200003f0230026f007008a
:1048c800e7ef0700300798003e0090000000e00086
:1048d80011003a0010a82000104078000004e00001
:1048e8003100320071e4840010a8200081027800b1
:1048f8000002780013c0b30012c0b30021c0b30097
:1049080000c5b3009508070010a820008040eb0000
:10491800014878002500370068004700be00900075
:10492800811f7800b1e82900811f780028f307006b
:10493800e4875700680047008000780010a820002e
:1049480048f307000000e0001800320071e484001a
:1049580010a82000810278000002780013c0b3007c
:1049680012c0b30021c0b30000c5b3007b08070024
:10497800f1ec8400680047008102780000027800aa
:1049880013c0b30012c0b30021c0b30000c5b30008
:1049980072080700680047008000780010a820000f
:1049a8003bf3070001003700000000004f047800c7
:1049b8000080fa00000006000400fa00004f7800aa
:1049c800110798009e80fb00d0cc2c000008b8008e
:1049d8004308de00004078000043b00080407800c3
:1049e8001e009000014878001e0090008001e80039
:1049f8001e81fb00d0cc2c000010b8004308de005c
:104a08006a00b900000078000000510000407800fa
:104a18000043b000804978001e0090000080e80044
:104a28008040eb00014878000080fa000000060092
:104a38000400fa00100798001e0090003040900013
:104a48008040e8001e009000314098001e00900051
:104a5800404090000080fb000000e900a1da290036
:104a6800614f78001e009000304090009e4f50002b
:104a78000f0036001e00900011c0b30031409800ae
:104a88001e009000404090008040e8001e0090000a
:104a9800414098001e00900040409000ec4f5000ac
:104aa800030036001e00900011c0b300414098007a
:104ab8000080fa00000006000200fa00000f7800eb
:104ac8001e007800204090008040e8001e0078001a
:104ad800214098001e007800a0409000b0c3b300a9
:104ae80080cf5000080036001e0078008040eb00a0
:104af800214098001e007800104090008040e80097
:104b08001e007800114098001e0078009040900028
:104b1800b0c3b30080cf5000080036001e007800f4
:104b28008040eb00114098001e007800104078008b
:104b38008040e8001e007800014878001e007800d8
:104b480010407800f74f5000050036001e0078002e
:104b58008040eb00014878001e007800b4ff070091
:104b68000080fa00000006001600fa00200f9800e6
:104b780015c8bf000004e0000d00320020a7200087
:104b88008040eb0001487800b0a720008040eb008f
:104b98000148780010c8bf000004a2000080fb0094
:104ba800004078001fe8b7002068ef001568ef00a4
:104bb8000040eb00004f78002e08900090407800ed
:104bc8001147980010c8bf000004e000110032002f
:104bd8001e4090000004e00003003a00c0c0b3008b
:104be800104798000b0037001e409000eb4f500014
:104bf8000800360010c0b300004f78001e40900037
:104c0800ec4f5000030036001e4090006c405000ee
:104c1800104798006b004700800078001e40900005
:104c280065ff07000e80e800eb004700811f780051
:104c3800e1e82900811f780058f20700e48757004f
:104c48002e08900010409000eb0047005aff070024
:104c5800eb0047000e80e80078f207000e80e800bd
:104c680092f207008e80e8000080400022002000b9
:104c780021e9290063f207002e08900020409000e7
:104c8800eb0047004cff0700eb0047000e80e800f0
:104c98006af207000e80e8008000780020a7200054
:104ca80070f207000000e00008003a00f1812000df
:104cb8009140780010c8bf0080cf500003003a0030
:104cc80020c8bf009e4f50003b00320071e48400b2
:104cd80020a72000810278000002780023c0b300da
:104ce80022c0b300d1c2b30080c0b3009b07070045
:104cf80070e4840000027800c3c3b30002c5b300a7
:104d0800d1c2b30020c3b3000e070700f1ec840042
:104d18000e80e800810278000002780023c0b3000a
:104d280022c0b300d1c2b30080c0b3008b07070014
:104d380010c8bf000004e000160032001e407800d2
:104d48000004e0000a003200f1ec840040e9290088
:104d5800810278000002780013c0b30012c0b300cb
:104d680051c5b3000040eb007c070700090037007d
:104d7800f1ec840070e929008102780000027800d3
:104d880013c0b30012c0b30051c5b3000040eb001c
:104d9800720707000e80e8008000780020a7200036
:104da8003bf2070010c8bf001fe8b7009e4078001c
:104db80002822000014978002e08900030409000bf
:104dc800eb004700fcfe07006e004700eb004700c1
:104dd800811f7800a1e92900811f7800eff1070001
:104de800e48757002e08900040409000eb004700f1
:104df800f1fe0700eb0047006e0047000ff20700c6
:104e08006e00470080007800b0a7200015f2070068
:104e18000000e0001600320071e48400b0a7200012
:104e2800810278000002780013c0b30012c0b300fa
:104e380051c5b30010c4b30048070700f1ec840063
:104e48006e004700810278000002780013c0b300aa
:104e580012c0b30051c5b30010c4b3003f07070028
:104e68006e00470080007800b0a7200008f2070015
:104e78000080fa00000006000800fa0020479800a9
:104e880031479800220798006347980074479800b4
:104e98000040eb00004f7800220037000040eb0094
:104ea800104798001a0037001e80fb0000004000e1
:104eb800ae00900000804000900078006e409000a6
:104ec8000080fb000001e9001e4090000080fb000c
:104ed80000005100120020000010dd00008060007a
:104ee8000000e00007003200f2ec84003e40900031
:104ef8009e404000ae4190001e40900000c041001e
:104f0800990407001e4090000040e80010479800f0
:104f18009e4090006e40900080cf5000e2ff390024
:104f28001e4fe8007e4090009e40780080cf5000e1
:104f3800daff39000080fa00000006000400fa00d9
:104f480010c0b30011e8b70010c8bf000004e000ab
:104f5800020032000040eb000100370010c0b3002f
:104f680013e8b700440007000040eb00004f78004a
:104f78000040eb00104798003a00370021338000ca
:104f8800008020000080600000f0a7000000ea0018
:104f98000000e9004f00de00204798002133800020
:104fa800000021000080600000f0a7000000ea0077
:104fb8000000e9004f00de00304798003e409000b6
:104fc8000004e000120032001e4090000004a2001d
:104fd8000004e0000e00320013c8bf000080fb0090
:104fe8008000e80010002800008060000000e00059
:104ff80004003d000000e900e1ff2f000080700080
:105008000000e8000040780013e8b7001a00070025
:105018002e4090000004e0000c0032001e40780092
:105028000004a2000004e0000800320013c8bf001a
:105038000080fb000000e9004f00de00004078001f
:1050480010e8b7001168ef0009003700ae40900083
:10505800014f7800be40900011479800400620009c
:10506800ef0b070011c8bf000004e000c3ff3a00bf
:105078000080fa00000006000000fa000f0907008f
:10508800f1ec8400e0e92900810278000002780050
:1050980013c0b30012c0b30051c0b300a0c0b30026
:1050a800ae06070013c8bf000004e00011003a0074
:1050b800f0ec84000002780033c2b300c2c3b3002e
:1050c80071c1b30080c0b3001e06070071e48400fc
:1050d800d0ea2900810278000002780013c0b300ea
:1050e80012c0b30091c1b300a0c0b3009b06070073
:1050f80009003700f1ec8400d0ea29008102780029
:105108000002780013c0b30012c0b30091c1b3000d
:10511800a0c0b3009106070013c8bf00e14f5000bc
:1051280011003a00f0ec84000002780023c3b300b9
:10513800c2c3b30061c2b30080c0b3000106070058
:1051480071e4840010eb29008102780000027800e5
:1051580013c0b30012c0b30081c2b300a0c0b30033
:105168007e06070009003700f1ec840010eb2900e7
:10517800810278000002780013c0b30012c0b300a7
:1051880081c2b300a0c0b300740607000080fa0013
:10519800000006000000fa00c808070070e4840058
:1051a80000027800a3c0b30032c7b30021c0b30027
:1051b800e0c1b300e3050700f1ec840050eb2900df
:1051c800810278000002780023c0b30022c0b30037
:1051d800a1c0b30060c0b3006006070000c8bf00ec
:1051e8000004e0001d003a00f0ec840000027800a2
:1051f80003c4b300c2c2b30081c2b30080c0b3000d
:10520800d005070070e4840000027800e3c3b3000f
:10521800a2c2b300a1c2b300a0c0b300c905070071
:1052280070e484000002780003c4b30062c5b300d0
:1052380081c2b30020c3b300c205070070e4840034
:1052480000027800e3c3b30042c5b300a1c2b300b3
:1052580040c3b300bb0507001c00370070e484009e
:105268000002780003c4b300c2c2b30081c2b30015
:1052780080c0b300b305070070e484000002780022
:10528800e3c3b300a2c2b300a1c2b300a0c0b3007d
:10529800ac050700f0ec84000002780003c4b300fa
:1052a80062c5b30081c2b30020c3b300a5050700df
:1052b80070e4840000027800e3c3b30042c5b30081
:1052c800a1c2b30040c3b3009e0507000200070057
:1052d8000080fa00000006000400fa0070e4840070
:1052e80000027800e3c3b300b2c2b300e1c2b30066
:1052f800f0c0b3009305070080b02000104078008c
:105308000080fb00801f7800e0eb2900801f7800f8
:105318000e007800a1f00700e4875700f1ec840044
:105328000e007800810278000002780023c0b300e4
:1053380022c0b300e1c2b300f0c0b3000706070003
:1053480070e4840000027800e3c3b30032c5b30000
:10535800e1c2b30070c3b3007a05070090b0200023
:10536800104078000080fb00801f7800e0eb2900e7
:10537800801f78000e00780088f00700e487570047
:10538800f1ec84000e0078008102780000027800b9
:1053980023c0b30022c0b300e1c2b30070c3b3009e
:1053a800ee0507000080fa00000006000200fa007f
:1053b80021338000008020000080600000f0a700fa
:1053c8000000ea000000e9004f00de00004f78000e
:1053d80021338000000021000080600000f0a70059
:1053e8000000ea000000e9004f00de0010479800c6
:1053f8001e4078000004e000130032001e409000b8
:105408000004e000100032001dc8bf000004a20024
:105418000004e0000c0032001ec8bf000004a20017
:105428000004e0000800320000c8bf000080fb0054
:105438000000e9004f00de000040780000e8b700f7
:1054480054ff0700570037001e4078000004e000b2
:105458002a0032001dc8bf000004a2000004e000ba
:10546800260032001e4078000004a2000004e0007c
:1054780004003a001e4090000004a2000004e0006e
:105488001e00320000c8bf000004e0000d003a0012
:1054980080b02000104078000080fb008000e80009
:1054a8008001200000017800110009008200d80066
:1054b8008000fd008040780080b02000014878001e
:1054c8000c00370090b02000104078000080fb00ee
:1054d8008000e800c00320000001780011000900e6
:1054e8008200d8008000fd008040780090b0200045
:1054f8000148780078ff07002a0037001e40900016
:105508000004e000270032001ec8bf000004a2000b
:105518000004e000230032001e4078000004a200ce
:105528000004e00004003a001e4090000004a200bd
:105538000004e0001b00320000c8bf000004e000c7
:105548000c003a0080b02000104078000004e00011
:105558000400320080b02000104078000040e900cc
:105568000100370070c1b30081b020008048780086
:105578000b00370090b02000104078000004e000d5
:105588000400320090b02000104078000040e9008c
:1055980001003700b0c3b30091b020008048780004
:1055a8004dff07001e417800d18120008248780015
:1055b8001e419000e1812000824878000080fa00b6
:1055c800000006001a00fa00889fbe0020c3b3003e
:1055d80020fb0700200f980040c3b3001dfb070005
:1055e800300f980060c3b3001afb0700400f980003
:1055f80000002000f1422400008fbe002e08900019
:10560800cf80de00b1ec0700020020000308240070
:10561800b6ed070020079800310798003e08900073
:10562800cf80de00a9ec0700020020000308240058
:10563800aeed070040079800510798004e0890000b
